S01400004D61736B65644145535F52312E7372656300
S3150800000000200020E1030008DF030008DD030008E4
S3150800001000000000000000000000000000000000D2
S31508000020000000000000000000000000DF030008D8
S315080000300000000000000000DF030008DF030008DE
S31508000040DD030008DD030008DD030008DD03000802
S31508000050DD030008DD030008DD030008DD030008F2
S31508000060DD030008DD030008DD030008DD030008E2
S31508000070DD030008DD030008DD030008DD030008D2
S31508000080DD030008DD030008DD030008DD030008C2
S31508000090DD030008DD030008DD030008DD030008B2
S315080000A0DD030008DD030008DD030008DD030008A2
S315080000B0DD030008DD030008DD030008DD03000892
S315080000C0F0B5102087B000F0C9F90290102000F0B2
S315080000D0C5F90390102000F0C1F90023394A0190B0
S315080000E01370394A04901370384A1370020010329C
S315080000F0059202000599137001329142FAD1344FE4
S315080001000024304800F02AF92F4800F027F9039D0B
S31508000110280000F023F92F4B029AE35C2B702E4B34
S315080001200135E35C13550134102CF1D1002000F0A1
S3150800013044F9244E013F300000F02EF9082000F063
S315080001403CF9214D280000F027F9029A03990198F5
S3150800015000F044F8002FD3D100F037F9049B1F7044
S3150800016001330493049A059B9342F7D1184F300044
S3150800017000F0F4F8280000F0F1F80024039B1819A1
S3150800018000F0ECF8144B029AE35C13550134102C7A
S31508000190F4D1002000F011F9300000F0FDF8082035
S315080001A000F00BF9280000F0F7F8013F029A0399CE
S315080001B0019800F013F8002FD9D100F0E6F83800BE
S315080001C007B0F0BD4C0B00204D0B00204E0B002055
S315080001D0204E0000700C0008800C0008FFB4804612
S315080001E0894692464D4801784D4802784D484A401E
S315080001F00270FF234C4C4D4D10465840265C4E402D
S31508000200EE54013BF8DA404649465246434B1B78C2
S31508000210434C24780F25AE000C273E40AF087E409D
S315080002208F5D5F404755013DF5DA0F25AE000C2777
S315080002303E40AF087E40975D67404F55013DF5DA71
S315080002400B6813604B6853608B689360CB68D36008
S31508000250404649465246FFB4E0200006042148407D
S3150800026001210160FFBC0F24304D065D175D7E40FD
S31508000270AF5D0F55013CF8DA4C680825EC414C6037
S315080002808C681025EC418C60CC681825EC41CC6054
S31508000290274F234D2B78274DEE5C35026E403504EB
S315080002A06E401D026B401D046B400324A446204685
S315080002B04C46810061580130032420404C46850095
S315080002C0655959406940CC093A681440BA6854439C
S315080002D049007A6811406140694001300324204092
S315080002E04C468500655969400130032420404C4638
S315080002F085006559694071406546AD0040464151E3
S315080003006446013CD2DAFFB4E024240604256C4096
S3150800031000212560FFBCFFBC704700004C0B002085
S315080003204D0B00204E0B00200C0200200000002080
S315080003300002002000010020FFB4E0242406042562
S315080003406C4001252560FFBC7047FFB4E0242406F5
S3150800035004256C4000252560FFBC7047FFB4E124E6
S31508000360240621680170FFBC7047FFB4E124240607
S3150800037004256C4021680170FFBC7047FFB4E02477
S31508000380240605782560FFBC7047FFB4F0242406D0
S3150800039000252560FFBC7047FFB4E02424064025ED
S315080003A06C402060FFBC7047FFB4E0242406422559
S315080003B06C4000252560FFBC7047FFB4E024240686
S315080003C044256C402060FFBC7047FFB4E024240637
S315080003D046256C4000252560FFBC7047FEE7704740
S315080003E000221448144B15491418D018884203D211
S315080003F0246804320460F4E7114A904202D20021CC
S3150800040002C0F9E70F4C1048844202D208CC98473C
S31508000410F9E70E4C0E4B9C4202D201CC8047F9E715
S31508000420FFF74EFE0B4C0C498C4202D204CC904787
S31508000430F9E7C046940C0008000000204C0B002089
S315080004408C0B0020940C0008940C0008940C0008EF
S31508000450940C0008940C0008940C000810B5034B83
S315080004600100186800F004F810BDC046480B0020CB
S31508000470F0B55F464D4656464446F0B40D000B357A
S3150800048083B00700162D00D8A8E007239D4300D5A2
S31508000490CEE0A94200D9CBE000F094FAF823FF3366
S315080004A09D4200D884E26B0A00D1C5E0042B00D92E
S315080004B06CE13823A9099C4601339846884443468B
S315080004C08C445900C94E890071180839CC68A14274
S315080004D017D0032362689A431300521B0F2A00DDC4
S315080004E0B0E00320002A09DB8DE0636883435A1BCA
S315080004F00F2A00DDA6E0002A00DB84E0E468A142BA
S31508000500F3D143460093320034690832944200D14D
S315080005108FE10323616899430B00481B0F2800DD10
S3150800052076E172613261002871DAB14A914200D9E6
S3150800053034E10123C8088210934072681A43C30045
S315080005409B1998687260E360A0609C601300C460A1
S31508000550012000998A109040984200D975E003421C
S315080005600CD1032291430A1D40000092034205D193
S31508000570009A4000043200920342F9D003239846B9
S31508000580009AD3009946B144CC4692466346DC6845
S31508000590A44507D14FE1002A00DB5FE1E468A445E2
S315080005A000D148E14246636893435A1B0F2AF2DD9D
S315080005B0012163190D436560E068A5680836E8609F
S315080005C011438560F360B3603800DE609E60596051
S315080005D09A5000F0F9F92000083022E0102927D8AF
S315080005E0380000F0EFF91025062302217F4E9B0004
S315080005F0F3181A005C68083A944200D127E10323ED
S3150800060062689A431300E268A168CA609160012291
S31508000610E318596838000A435A6000F0D5F92000F3
S31508000620083003B03CBC90469946A246AB46F0BD9E
S315080006300C2300203B60F4E740239846013B8021C9
S315080006409C463FE7634600935DE70323B468626808
S315080006509A439046AA4203D3521B0F2A00DD87E02D
S3150800066023004344634A0193634B93461B6812680D
S31508000670EB18013200D157E1604A944663441B0BDC
S315080006801B0300930099380000F0A0F90300814687
S31508000690013361D0019B834200D9FDE0584B009A93
S315080006A09A461B689C46534662441A60019B110091
S315080006B04B4500D143E15B461B68013300D14FE14E
S315080006C04B46019A9B1A59185346196007234A46FE
S315080006D0134000D117E1082189464A49D21A9144A4
S315080006E0C91A009B38004B441B051B0DCB1A190071
S315080006F09B4600F06BF9431C00D135E14B46C01A06
S3150800070001235844184353461B685B441900534653
S3150800071019604B46B3605860B44213D043460F2B5A
S3150800072000D8E1E04346072260680C3B9343063A4B
S31508000730024005201A436260E218506090600F2B51
S3150800074000D915E1304B1A68914200D919602F4B30
S315080007501A68914200D919600323B46862689A43FB
S315080007601300521B9D4200D9C1E00F2A00DCBEE0EF
S315080007700123290065191943134361603800B560E0
S315080007806B6000F021F9200008304AE7142B74D971
S31508000790542B00D9B0E0290B6E238CE64A0A042AAA
S315080007A074D9142A00D9C2E010005C325B305200BA
S315080007B0082149428C469200B218944462469268CF
S315080007C00B318846944500D1A0E0414650688843DD
S315080007D0834202D292689445F7D1D3689C467368DF
S315080007E06146A260E1608C60D460B1E60C0300202B
S315080007F0FF01000018070020580B00200F1000000A
S315080008005C0B002008100000540B0020500B002041
S31508000810012163190D430143656073613361DA6031
S315080008209A6059601850380000F0CEF82000083059
S31508000830F7E673688CE608239B46073BDC449B4631
S31508000840DA4443465246134200D09FE633E0DC685A
S315080008508A1C0092A34200D155E6D0E60122E3188D
S31508000860596838000A435A60E368A268D3609A60F8
S3150800087000F0AAF820000830D3E65B22944601323D
S31508000880904698449C44434659001BE68A09100042
S315080008903932383052008BE7B44200D05CE7FDE6C7
S315080008A0009B013B009308235B429C46E1444B4670
S315080008B09B6899457AD14346009A1342F0D17368EA
S315080008C0834373604000984200D9BEE6002800D1F1
S315080008D0BBE6034270D152460092009A40000432A9
S315080008E000920342F9D04BE601234A46536038008A
S315080008F000F06AF8002094E6AA22520093420DD826
S31508000900E90B7723D7E580214901EAE60123801020
S315080009108340726813437360624661E7284A9342CC
S3150800092018D8A90C7C23C6E510330093AAE6542AE6
S3150800093026D80A0B10006F326E30520038E71B05B6
S3150800094000D0B8E6009BB26843441800012303436D
S315080009505360F7E67F239846013BFE219C46B1E5A6
S315080009605B464A461A60B1E6002301209B46CAE662
S3150800097021003800083100F08BF853461968E1E683
S31508000980AA204000824205D8CA0B10007832773078
S3150800099052000DE70A48824205D88A0C10007D32BB
S315080009A07C30520004E7FE227E2001E7736889E75F
S315080009B0E9084B1C5B0019E653460093E0E5C04680
S315080009C0540500007047C0467047C046002370B5FE
S315080009D0064C05000800236000F03CF9431C00D0D3
S315080009E070BD2368002BFBD02B60F9E7880B00202D
S315080009F0F8B50C000600FFF7E5FF204FBB685D68F9
S31508000A0003239D431E4B2C1B9C466444240B1D4B01
S31508000A10013C24039C4207DD00213000FFF7D6FF86
S31508000A20BB685B19984204D03000FFF7CDFF002061
S31508000A30F8BD61423000FFF7C9FF431C0DD0012302
S31508000A402D1BBA681D43104B55601A683000141BDD
S31508000A501C60FFF7B9FF0120EAE700213000FFF725
S31508000A60B5FFBB68C21A0F2ADEDD08490968401AB5
S31508000A700549086001210A435A60D5E70C0300209E
S31508000A80EF0F0000FF0F00005C0B00201807002086
S31508000A90F0B54746050080B40C1E3ED0FFF792FF1E
S31508000AA001232100984608394E6842463300032040
S31508000AB09343CC186268824360488768BC425AD020
S31508000AC04746626037420BD10827BC460E68844405
S31508000AD0891B9B198E68664566D0CF68F760BE602D
S31508000AE00126A7187F68374236D0554A1E434E60FE
S31508000AF0CB50934214D8DB08FF3A9C10FF3AA24029
S31508000B004468DB002243426018188368C8608B601B
S31508000B108160D9602800FFF757FF04BC9046F0BDF6
S31508000B205A0A042A4FD89C092600393438366400F4
S31508000B30A4000419083CA268032794424AD05068C6
S31508000B40B843834202D292689442F8D1D468CC6002
S31508000B508A60A160D160DDE79B183A4FA268BA4265
S31508000B6040D0E4681E43D460A260354A4E60CB503C
S31508000B709342D5D8BFE79B184246324206D10A6847
S31508000B80891A8C689B18CA68E260946001242E4A08
S31508000B901C4312684C6081609342BBD32B4B2800E0
S31508000BA01968FFF725FFB5E74646A01840683042A2
S31508000BB03ED1A068D318E268C260906042461A43E4
S31508000BC04A60CB50A6E7142A14D816005C325B3666
S31508000BD05400ADE70123B610B3404268134343609F
S31508000BE02200B4E71E43D1609160CA608A604E60F5
S31508000BF0CB508FE7542A05D81C0B26006F346E3667
S31508000C00640095E7AA246400A24205D8DC0B2600F6
S31508000C107834773664008BE70D4CA24205D89C0CD5
S31508000C2026007D347C36640082E7FE247E267FE734
S31508000C3042461A434A60CB506CE7C0460C03002074
S31508000C40FF0100001403002014070020580B0020A1
S31508000C5054050000044A1368002B03D018181060C6
S31508000C6018007047014BF9E7840B00208C0B002015
S31508000C70DA39A3EE5E6B4B0D3255BFEF95601890CF
S31508000C800123456789ABCDEF123456789ABCDEF05E
S30908000C90430000000F
S31508000C94637C777BF26B6FC53001672BFED7AB7627
S31508000CA4CA82C97DFA5947F0ADD4A2AF9CA472C0D2
S31508000CB4B7FD9326363FF7CC34A5E5F171D831153F
S31508000CC404C723C31896059A071280E2EB27B27560
S31508000CD409832C1A1B6E5AA0523BD6B329E32F84D8
S31508000CE453D100ED20FCB15B6ACBBE394A4C58CFD0
S31508000CF4D0EFAAFB434D338545F9027F503C9FA8A4
S31508000D0451A3408F929D38F5BCB6DA2110FFF3D271
S31508000D14CD0C13EC5F974417C4A77E3D645D197325
S31508000D2460814FDC222A908846EEB814DE5E0BDB1F
S31508000D34E0323A0A4906245CC2D3AC629195E47956
S31508000D44E7C8376D8DD54EA96C56F4EA657AAE08B0
S31508000D54BA78252E1CA6B4C6E8DD741F4BBD8B8A4B
S31508000D64703EB5664803F60E613557B986C11D9EB1
S31508000D74E1F8981169D98E949B1E87E9CE5528DF28
S31508000D848CA1890DBFE6426841992D0FB054BB1654
S31508000D9400020406080A0C0E10121416181A1C1E51
S31508000DA420222426282A2C2E30323436383A3C3E41
S31508000DB440424446484A4C4E50525456585A5C5E31
S31508000DC460626466686A6C6E70727476787A7C7E21
S31508000DD480828486888A8C8E90929496989A9C9E11
S31508000DE4A0A2A4A6A8AAACAEB0B2B4B6B8BABCBE01
S31508000DF4C0C2C4C6C8CACCCED0D2D4D6D8DADCDEF1
S31508000E04E0E2E4E6E8EAECEEF0F2F4F6F8FAFCFEE0
S31508000E141B191F1D131117150B090F0D03010705C0
S31508000E243B393F3D333137352B292F2D23212725B0
S31508000E345B595F5D535157554B494F4D43414745A0
S31508000E447B797F7D737177756B696F6D6361676590
S31508000E549B999F9D939197958B898F8D8381878580
S31508000E64BBB9BFBDB3B1B7B5ABA9AFADA3A1A7A570
S31508000E74DBD9DFDDD3D1D7D5CBC9CFCDC3C1C7C560
S31508000E84FBF9FFFDF3F1F7F5EBE9EFEDE3E1E7E550
S31508000E9401010101FEFEFEFE1B000000637C777B58
S31508000EA4F26B6FC53001672BFED7AB76CA82C97D54
S31508000EB4FA5947F0ADD4A2AF9CA472C0B7FD9326E5
S31508000EC4363FF7CC34A5E5F171D8311504C723C3E9
S31508000ED41896059A071280E2EB27B27509832C1A2D
S31508000EE41B6E5AA0523BD6B329E32F8453D100ED87
S31508000EF420FCB15B6ACBBE394A4C58CFD0EFAAFB6B
S31508000F04434D338545F9027F503C9FA851A3408F32
S31508000F14929D38F5BCB6DA2110FFF3D2CD0C13EC4A
S31508000F245F974417C4A77E3D645D197360814FDCDF
S31508000F34222A908846EEB814DE5E0BDBE0323A0AC3
S31508000F444906245CC2D3AC629195E479E7C8376D47
S31508000F548DD54EA96C56F4EA657AAE08BA78252E6C
S31508000F641CA6B4C6E8DD741F4BBD8B8A703EB566F5
S31508000F744803F60E613557B986C11D9EE1F89811E6
S31508000F8469D98E949B1E87E9CE5528DF8CA1890DD5
S31508000F94BFE6426841992D0FB054BB160000000005
S31508000FA4000000000C0300200C030020140300209A
S31508000FB4140300201C0300201C0300202403002023
S31508000FC4240300202C0300202C03002034030020D3
S31508000FD4340300203C0300203C0300204403002083
S31508000FE4440300204C0300204C0300205403002033
S31508000FF4540300205C0300205C03002064030020E3
S31508001004640300206C0300206C0300207403002092
S31508001014740300207C0300207C0300208403002042
S31508001024840300208C0300208C03002094030020F2
S31508001034940300209C0300209C030020A4030020A2
S31508001044A4030020AC030020AC030020B403002052
S31508001054B4030020BC030020BC030020C403002002
S31508001064C4030020CC030020CC030020D4030020B2
S31508001074D4030020DC030020DC030020E403002062
S31508001084E4030020EC030020EC030020F403002012
S31508001094F4030020FC030020FC03002004040020C1
S315080010A4040400200C0400200C040020140400206E
S315080010B4140400201C0400201C040020240400201E
S315080010C4240400202C0400202C04002034040020CE
S315080010D4340400203C0400203C040020440400207E
S315080010E4440400204C0400204C040020540400202E
S315080010F4540400205C0400205C04002064040020DE
S31508001104640400206C0400206C040020740400208D
S31508001114740400207C0400207C040020840400203D
S31508001124840400208C0400208C04002094040020ED
S31508001134940400209C0400209C040020A40400209D
S31508001144A4040020AC040020AC040020B40400204D
S31508001154B4040020BC040020BC040020C4040020FD
S31508001164C4040020CC040020CC040020D4040020AD
S31508001174D4040020DC040020DC040020E40400205D
S31508001184E4040020EC040020EC040020F40400200D
S31508001194F4040020FC040020FC04002004050020BC
S315080011A4040500200C0500200C0500201405002069
S315080011B4140500201C0500201C0500202405002019
S315080011C4240500202C0500202C05002034050020C9
S315080011D4340500203C0500203C0500204405002079
S315080011E4440500204C0500204C0500205405002029
S315080011F4540500205C0500205C05002064050020D9
S31508001204640500206C0500206C0500207405002088
S31508001214740500207C0500207C0500208405002038
S31508001224840500208C0500208C05002094050020E8
S31508001234940500209C0500209C050020A405002098
S31508001244A4050020AC050020AC050020B405002048
S31508001254B4050020BC050020BC050020C4050020F8
S31508001264C4050020CC050020CC050020D4050020A8
S31508001274D4050020DC050020DC050020E405002058
S31508001284E4050020EC050020EC050020F405002008
S31508001294F4050020FC050020FC05002004060020B7
S315080012A4040600200C0600200C0600201406002064
S315080012B4140600201C0600201C0600202406002014
S315080012C4240600202C0600202C06002034060020C4
S315080012D4340600203C0600203C0600204406002074
S315080012E4440600204C0600204C0600205406002024
S315080012F4540600205C0600205C06002064060020D4
S31508001304640600206C0600206C0600207406002083
S31508001314740600207C0600207C0600208406002033
S31508001324840600208C0600208C06002094060020E3
S31508001334940600209C0600209C060020A406002093
S31508001344A4060020AC060020AC060020B406002043
S31508001354B4060020BC060020BC060020C4060020F3
S31508001364C4060020CC060020CC060020D4060020A3
S31508001374D4060020DC060020DC060020E406002053
S31508001384E4060020EC060020EC060020F406002003
S31508001394F4060020FC060020FC06002004070020B2
S315080013A40407002000000200FFFFFFFF0000000002
S315080013B4000000000C0A0020740A0020DC0A002041
S315080013C4000000000000000000000000000000000B
S315080013D400000000000000000000000000000000FB
S315080013E400000000900C0008000000000000000047
S315080013F400000000000000000000000000000000DB
S3150800140400000000000000000000000000000000CA
S3150800141400000000000000000000000000000000BA
S3150800142400000000000000000000000000000000AA
S31508001434000000000000000000000000000000009A
S31508001444000000000000000000000000000000008A
S315080014540000000000000000010000000000000079
S315080014640E33CDAB34126DE6ECDE05000B0000003E
S31508001474000000000000000000000000000000005A
S31508001484000000000000000000000000000000004A
S31508001494000000000000000000000000000000003A
S315080014A4000000000000000000000000000000002A
S311080017D4000000000000000020070020B4
S705080003E10E
