:020000040800F2
:1000000000200020C9150008C7150008C515000804
:1000100000000000000000000000000000000000E0
:10002000000000000000000000000000C7150008EC
:100030000000000000000000C7150008C7150008F8
:10004000C5150008C5150008C5150008C515000828
:10005000C5150008C5150008C5150008C515000818
:10006000C5150008C5150008C5150008C515000808
:10007000C5150008C5150008C5150008C5150008F8
:10008000C5150008C5150008C5150008C5150008E8
:10009000C5150008C5150008C5150008C5150008D8
:1000A000C5150008C5150008C5150008C5150008C8
:1000B000C5150008C5150008C5150008C5150008B8
:1000C000F0B5102085B001F0BDFA0190102001F0CC
:1000D000B9FA0600102001F0B5FA04008C204000A7
:1000E00001F0B0FA2300103303930700230000222D
:1000F000029403991A7001339942FAD1FA25AD009E
:10010000234A0023944623496246585CF054985C85
:10011000019AD0540133102BF6D180220199380076
:1001200000F074F8013D01F0FBF9220031003800C5
:1001300000F0C6FB01F0FDF9002DE1D1029B1D701E
:1001400001330293029A039B9342F7D1FA25AD0043
:1001500000230F4AE15C0198F154995CC1540133CA
:10016000102BF7D101008022380000F04FF8013D3C
:1001700001F0D6F922003100380000F0A1FB01F0B7
:10018000D8F9002DE4D101F0F4F9280005B0F0BD54
:10019000F41E0008E41E000880B584B000AF78604B
:1001A00039607B68FB6004E0FB685A1CFA6000223F
:1001B0001A703B685A1E3A60002BF5D1C046BD4606
:1001C00004B080BD80B582B000AF78608C235A0047
:1001D0007B680021180001F0E9FCC046BD4602B072
:1001E00080BDC04680B582B000AF78607B68002BD0
:1001F00007D08C235A007B6811001800FFF7CCFF52
:1002000000E0C046BD4602B080BDC04680B586B0A5
:1002100000AFF860B9607A607B68C02B09D080229B
:100220005200934209D0802B0BD1FB680A221A603E
:100230000AE0FB680C221A6006E0FB680E221A60D6
:1002400002E020235B42A7E1FB6808333B61FB68C7
:100250003A695A6000237B6126E07B699B003A691A
:10026000D3187A699200B9688A18127810007A69EE
:1002700092000132B9688A18127812020100114303
:100280007A6992000232B868821812781204114317
:100290007A6992000332B8688218127812060A430B
:1002A0001A607B6901337B617B685A097B699A42DA
:1002B000D3D8FB681B680C2B5ED00E2B00D1C8E096
:1002C0000A2B00D067E100237B6151E03B691033CA
:1002D0003A691168B24A78698000825851403A6997
:1002E0000C321268120AFF200240AE48825C514074
:1002F0003A690C321268120CFF200240A948825C55
:10030000120251403A690C321268120EA548825C02
:10031000120451403A690C321268FF200240A14891
:10032000825C12064A401A603B6914333A6904320F
:1003300011683A69103212684A401A603B691833F2
:100340003A69083211683A69143212684A401A60F0
:100350003B691C333A690C3211683A6918321268E9
:100360004A401A607B6901337B613B6910333B6112
:100370007B69092BAAD90EE100237B6165E03B690B
:1003800018333A691168864A78698000825851406A
:100390003A6914321268120AFF2002408148825CD6
:1003A00051403A6914321268120CFF2002407D4815
:1003B000825C120251403A6914321268120E794876
:1003C000825C120451403A6914321268FF200240E4
:1003D0007448825C12064A401A603B691C333A69D1
:1003E000043211683A69183212684A401A603B694F
:1003F00020333A69083211683A691C3212684A405F
:100400001A603B6924333A690C3211683A69203228
:1004100012684A401A603B6928333A691032116801
:100420003A69243212684A401A603B692C333A69AF
:10043000143211683A69283212684A401A607B699E
:1004400001337B613B6918333B617B69072B96D98C
:10045000A1E000237B6199E03B6920333A69116890
:100460004F4A78698000825851403A691C321268BC
:10047000120AFF2002404B48825C51403A691C320C
:100480001268120CFF2002404648825C1202514062
:100490003A691C321268120E4248825C12045140C2
:1004A0003A691C321268FF2002403E48825C120604
:1004B0004A401A603B6924333A69043211683A6948
:1004C000203212684A401A603B6928333A69083280
:1004D00011683A69243212684A401A603B692C3329
:1004E0003A690C3211683A69283212684A401A6037
:1004F0003B6930333A69103211683A692C3212681C
:10050000FF2002402748825C51403A692C32126831
:10051000120AFF2002402348825C120251403A69CD
:100520002C321268120CFF2002401E48825C12041A
:1005300051403A692C321268120E1A48825C120637
:100540004A401A603B6934333A69143211683A6997
:10055000303212684A401A603B6938333A691832BF
:1005600011683A69343212684A401A603B693C3378
:100570003A691C3211683A69383212684A401A6086
:100580007B6901337B613B6920333B617B69062BCF
:1005900000D861E7C04600231800BD4606B080BD04
:1005A00004410008041F000880B5D0B000AFF86017
:1005B000B9607A601423FB181800FFF703FEFB688C
:1005C00008339A225200BA181360FB689A2252002C
:1005D000BA1812685A607A68B9681423FB181800B0
:1005E000FFF714FE030096225200BA1813609623F8
:1005F0005B00FB181B68002B00D046E1AA4BA02231
:1006000052009446BC4463441A68FB681A60A64BC7
:10061000A02252009446BC4463445A68A24BA021D5
:1006200049008C46BC4463441B681B01D3189822C4
:100630005200BA1813609A235B00FB181B681A1D3E
:100640009A21490079180A6098225200BA18126853
:10065000111D982040003818016012681A609A2312
:100660005B00FB181B681A1D9A21490079180A6063
:1006700098225200BA181268111D982040003818AC
:10068000016012681A609A235B00FB181B681A1D30
:100690009A21490079180A6098225200BA18126803
:1006A000111D982040003818016012681A609A23C2
:1006B0005B00FB181B681A1D9A21490079180A6013
:1006C00098225200BA181268111D9820400038185C
:1006D000016012681A60FB681B68013B9E22520091
:1006E000BA18136098235B00FB181B68203B982204
:1006F0005200BA18136071E000239C225200BA180D
:10070000136053E09A235B00FB181B681A1D9A21A3
:10071000490079180A6098225200BA1812681268C3
:10072000FF210A4061498A5C1100614A89008958A9
:1007300098225200BA1812681268120AFF2002406A
:100740005A48825C10005B4A8000825851409822CF
:100750005200BA1812681268120CFF200240534867
:10076000825C1000544A8000825851409822520006
:10077000BA1812681268120E4C48825C10004F4A78
:10078000800082584A401A609C235B00FB181B685B
:1007900001339C225200BA18136098235B00FB18A7
:1007A0001B68043398225200BA1813609C235B0024
:1007B000FB181B68032BA5DD9E235B00FB181B6841
:1007C000013B9E225200BA18136098235B00FB186D
:1007D0001B68203B98225200BA1813609E235B00CE
:1007E000FB181B68002B87DC9A235B00FB181B6837
:1007F0001A1D9A21490079180A6098225200BA18E5
:100800001268111D982040003818016012681A60A3
:100810009A235B00FB181B681A1D9A21490079185E
:100820000A6098225200BA181268111D98204000E0
:100830003818016012681A609A235B00FB181B6865
:100840001A1D9A21490079180A6098225200BA1894
:100850001268111D982040003818016012681A6053
:100860009A235B00FB181B681A1D9A21490079180E
:100870000A6098225200BA181268111D9820400090
:100880003818016012681A6000E0C0461423FB1893
:100890001800FFF7A7FC96235B00FB181B681800E5
:1008A000BD4650B080BDC046D4FEFFFF041F000807
:1008B000043100080435000804390008043D00082C
:1008C00080B58EB000AFF860B9607A60FB685B6895
:1008D0003B63BB681B781A00BB6801331B781B02A3
:1008E0001A43BB6802331B781B041A43BB680333EB
:1008F0001B781B061343FB623B6B1A1D3A631B6894
:10090000FA6A5340FB62BB6804331B781A00BB6869
:1009100005331B781B021A43BB6806331B781B0484
:100920001A43BB6807331B781B061343BB623B6B40
:100930001A1D3A631B68BA6A5340BB62BB6808332E
:100940001B781A00BB6809331B781B021A43BB686B
:100950000A331B781B041A43BB680B331B781B0636
:1009600013437B623B6B1A1D3A631B687A6A5340E0
:100970007B62BB680C331B781A00BB680D331B7895
:100980001B021A43BB680E331B781B041A43BB6857
:100990000F331B781B0613433B623B6B1A1D3A63F4
:1009A0001B683A6A53403B62FB681B685B10013B63
:1009B0007B6312E13B6B1A1D3A631A68FB6AFF21E5
:1009C0001940FE4B8900CB585A40BB6A1B0AFF21D5
:1009D0001940FB4B8900CB585A407B6A1B0CFF2106
:1009E0001940F84B8900CB585A403B6A190EF64B18
:1009F0008900CB585340FB613B6B1A1D3A631A6860
:100A0000BB6AFF211940ED4B8900CB585A407B6AE5
:100A10001B0AFF211940EA4B8900CB585A403B6A18
:100A20001B0CFF211940E74B8900CB585A40FB6A49
:100A3000190EE54B8900CB585340BB613B6B1A1D27
:100A40003A631A687B6AFF211940DC4B8900CB5856
:100A50005A403B6A1B0AFF211940D94B8900CB58E9
:100A60005A40FB6A1B0CFF211940D64B8900CB581A
:100A70005A40BB6A190ED44B8900CB5853407B6156
:100A80003B6B1A1D3A631A683B6AFF211940CB4B36
:100A90008900CB585A40FB6A1B0AFF211940C84BFA
:100AA0008900CB585A40BB6A1B0CFF211940C54B2B
:100AB0008900CB585A407B6A190EC34B8900CB582A
:100AC00053403B613B6B1A1D3A631A68FB69FF2177
:100AD0001940BA4B8900CB585A40BB691B0AFF2109
:100AE0001940B74B8900CB585A407B691B0CFF213A
:100AF0001940B44B8900CB585A403B69190EB24B90
:100B00008900CB585340FB623B6B1A1D3A631A684D
:100B1000BB69FF211940A94B8900CB585A407B691A
:100B20001B0AFF211940A64B8900CB585A403B694C
:100B30001B0CFF211940A34B8900CB585A40FB697D
:100B4000190EA14B8900CB585340BB623B6B1A1D59
:100B50003A631A687B69FF211940984B8900CB588A
:100B60005A403B691B0AFF211940954B8900CB581D
:100B70005A40FB691B0CFF211940924B8900CB584E
:100B80005A40BB69190E904B8900CB5853407B6289
:100B90003B6B1A1D3A631A683B69FF211940874B6A
:100BA0008900CB585A40FB691B0AFF211940844B2E
:100BB0008900CB585A40BB691B0CFF211940814B5F
:100BC0008900CB585A407B69190E7F4B8900CB585E
:100BD00053403B627B6B013B7B637B6B002B00DDF7
:100BE000E8E63B6B1A1D3A631A68FB6AFF2119405D
:100BF000724B8900CB585A40BB6A1B0AFF2119402F
:100C00006F4B8900CB585A407B6A1B0CFF2119405F
:100C10006C4B8900CB585A403B6A190E6A4B8900CD
:100C2000CB585340FB613B6B1A1D3A631A68BB6A91
:100C3000FF211940614B8900CB585A407B6A1B0A3F
:100C4000FF2119405E4B8900CB585A403B6A1B0C70
:100C5000FF2119405B4B8900CB585A40FB6A190EA3
:100C6000594B8900CB585340BB613B6B1A1D3A630B
:100C70001A687B6AFF211940504B8900CB585A40B3
:100C80003B6A1B0AFF2119404D4B8900CB585A4043
:100C9000FB6A1B0CFF2119404A4B8900CB585A4074
:100CA000BB6A190E484B8900CB5853407B613B6BA4
:100CB0001A1D3A631A683B6AFF2119403F4B8900AD
:100CC000CB585A40FB6A1B0AFF2119403C4B890054
:100CD000CB585A40BB6A1B0CFF211940394B890085
:100CE000CB585A407B6A190E374B8900CB5853407A
:100CF0003B613B6B1A1D3A631B68FA69FF210A408E
:100D000032498A5C5A40BB691B0AFF210B402F49BC
:100D1000CB5C1B025A407B691B0CFF210B402B490B
:100D2000CB5C1B045A403B691B0E2849CB5C1B065D
:100D30005340FB623B6B1A1D3A631B68BA69FF2183
:100D40000A4022498A5C5A407B691B0AFF210B40FA
:100D50001E49CB5C1B025A403B691B0CFF210B4018
:100D60001A49CB5C1B045A40FB691B0E1749CB5C2C
:100D70001B065340BB623B6B1A1D3A631B687A69C2
:100D8000FF210A4011498A5C5A403B691B0AFF2136
:100D90000B400E49CB5C1B025A40FB691B0CFF2128
:100DA0000B400A49CB5C1B045A40BB691B0E074928
:100DB000CB5C1B0653407B620AE0C046042000085F
:100DC0000424000804280008042C0008041F00085C
:100DD0003B6B1A1D3A631B683A69FF210A403C4984
:100DE0008A5C5A40FB691B0AFF210B403849CB5CE7
:100DF0001B025A40BB691B0CFF210B403449CB5CE2
:100E00001B045A407B691B0E3149CB5C1B065340C7
:100E10003B62FB6ADAB27B681A707B680133FA6A5C
:100E2000120AD2B21A707B680233FA6A120CD2B27A
:100E30001A707B680333FA6A120ED2B21A707B689A
:100E40000433BA6AD2B21A707B680533BA6A120ADE
:100E5000D2B21A707B680633BA6A120CD2B21A7018
:100E60007B680733BA6A120ED2B21A707B680833F5
:100E70007A6AD2B21A707B6809337A6A120AD2B2DD
:100E80001A707B680A337A6A120CD2B21A707B68C5
:100E90000B337A6A120ED2B21A707B680C333A6A3C
:100EA000D2B21A707B680D333A6A120AD2B21A7043
:100EB0007B680E333A6A120CD2B21A707B680F3319
:100EC0003A6A120ED2B21A70C046BD460EB080BD4C
:100ED000041F000880B58EB000AFF860B9607A607A
:100EE000FB685B683B63BB681B781A00BB68013317
:100EF0001B781B021A43BB6802331B781B041A437E
:100F0000BB6803331B781B061343FB623B6B1A1D44
:100F10003A631B68FA6A5340FB62BB6804331B7870
:100F20001A00BB6805331B781B021A43BB680633E3
:100F30001B781B041A43BB6807331B781B0613433B
:100F4000BB623B6B1A1D3A631B68BA6A5340BB62B3
:100F5000BB6808331B781A00BB6809331B781B0277
:100F60001A43BB680A331B781B041A43BB680B3354
:100F70001B781B0613437B623B6B1A1D3A631B688D
:100F80007A6A53407B62BB680C331B781A00BB68DB
:100F90000D331B781B021A43BB680E331B781B04EE
:100FA0001A43BB680F331B781B0613433B623B6B32
:100FB0001A1D3A631B683A6A53403B62FB681B6820
:100FC0005B10013B7B6312E13B6B1A1D3A631A68AD
:100FD000FB6AFF211940FE4B8900CB585A403B6AFF
:100FE0001B0AFF211940FB4B8900CB585A407B6AF2
:100FF0001B0CFF211940F84B8900CB585A40BB6AA3
:10100000190EF64B8900CB585340FB613B6B1A1D00
:101010003A631A68BB6AFF211940ED4B8900CB582F
:101020005A40FB6A1B0AFF211940EA4B8900CB5842
:101030005A403B6A1B0CFF211940E74B8900CB58F3
:101040005A407B6A190EE54B8900CB585340BB616F
:101050003B6B1A1D3A631A687B6AFF211940DC4B0F
:101060008900CB585A40BB6A1B0AFF211940D94B53
:101070008900CB585A40FB6A1B0CFF211940D64B04
:101080008900CB585A403B6A190ED44B8900CB5883
:1010900053407B613B6B1A1D3A631A683B6AFF2120
:1010A0001940CB4B8900CB585A407B6A1B0AFF2161
:1010B0001940C84B8900CB585A40BB6A1B0CFF2112
:1010C0001940C54B8900CB585A40FB6A190EC34BD7
:1010D0008900CB5853403B613B6B1A1D3A631A6839
:1010E000FB69FF211940BA4B8900CB585A403B6934
:1010F0001B0AFF211940B74B8900CB585A407B6926
:101100001B0CFF211940B44B8900CB585A40BB69D6
:10111000190EB24B8900CB585340FB623B6B1A1D32
:101120003A631A68BB69FF211940A94B8900CB5863
:101130005A40FB691B0AFF211940A64B8900CB5876
:101140005A403B691B0CFF211940A34B8900CB5827
:101150005A407B69190EA14B8900CB585340BB62A2
:101160003B6B1A1D3A631A687B69FF211940984B43
:101170008900CB585A40BB691B0AFF211940954B87
:101180008900CB585A40FB691B0CFF211940924B38
:101190008900CB585A403B69190E904B8900CB58B7
:1011A00053407B623B6B1A1D3A631A683B69FF210F
:1011B0001940874B8900CB585A407B691B0AFF2195
:1011C0001940844B8900CB585A40BB691B0CFF2146
:1011D0001940814B8900CB585A40FB69190E7F4B4F
:1011E0008900CB5853403B627B6B013B7B637B6B3D
:1011F000002B00DDE8E63B6B1A1D3A631A68FB6AB8
:10120000FF211940724B8900CB585A403B6A1B0A98
:10121000FF2119406F4B8900CB585A407B6A1B0C49
:10122000FF2119406C4B8900CB585A40BB6A190EFC
:101230006A4B8900CB585340FB613B6B1A1D3A63E4
:101240001A68BB6AFF211940614B8900CB585A408C
:10125000FB6A1B0AFF2119405E4B8900CB585A409C
:101260003B6A1B0CFF2119405B4B8900CB585A404D
:101270007B6A190E594B8900CB585340BB613B6BBD
:101280001A1D3A631A687B6AFF211940504B890086
:10129000CB585A40BB6A1B0AFF2119404D4B8900AD
:1012A000CB585A40FB6A1B0CFF2119404A4B89005E
:1012B000CB585A403B6A190E484B8900CB585340D3
:1012C0007B613B6B1A1D3A631A683B6AFF21194028
:1012D0003F4B8900CB585A407B6A1B0AFF211940BB
:1012E0003C4B8900CB585A40BB6A1B0CFF2119406C
:1012F000394B8900CB585A40FB6A190E374B89008D
:10130000CB5853403B613B6B1A1D3A631B68FA692B
:10131000FF210A4032498A5C5A403B691B0AFF217F
:101320000B402F49CB5C1B025A407B691B0CFF21F1
:101330000B402B49CB5C1B045A40BB691B0E284950
:10134000CB5C1B065340FB623B6B1A1D3A631B6868
:10135000BA69FF210A4022498A5C5A40FB691B0A8C
:10136000FF210B401E49CB5C1B025A403B691B0C02
:10137000FF210B401A49CB5C1B045A407B691B0EB2
:101380001749CB5C1B065340BB623B6B1A1D3A638B
:101390001B687A69FF210A4011498A5C5A40BB697F
:1013A0001B0AFF210B400E49CB5C1B025A40FB6914
:1013B0001B0CFF210B400A49CB5C1B045A403B69C4
:1013C0001B0E0749CB5C1B0653407B620AE0C046FC
:1013D000043100080435000804390008043D000801
:1013E000043000083B6B1A1D3A631B683A69FF2101
:1013F0000A403C498A5C5A407B691B0AFF210B402A
:101400003849CB5C1B025A40BB691B0CFF210B40C7
:101410003449CB5C1B045A40FB691B0E3149CB5C41
:101420001B0653403B62FB6ADAB27B681A707B682A
:101430000133FA6A120AD2B21A707B680233FA6A6E
:10144000120CD2B21A707B680333FA6A120ED2B24F
:101450001A707B680433BA6AD2B21A707B6805339B
:10146000BA6A120AD2B21A707B680633BA6A120CD0
:10147000D2B21A707B680733BA6A120ED2B21A70EF
:101480007B6808337A6AD2B21A707B6809337A6A49
:10149000120AD2B21A707B680A337A6A120CD2B27C
:1014A0001A707B680B337A6A120ED2B21A707B689C
:1014B0000C333A6AD2B21A707B680D333A6A120A58
:1014C000D2B21A707B680E333A6A120CD2B21A701A
:1014D0007B680F333A6A120ED2B21A70C046BD460C
:1014E0000EB080BD0430000880B584B000AFF86055
:1014F000B9607A603B60BB68012B06D13A687968B5
:10150000FB681800FFF7DCF905E03A687968FB68CA
:101510001800FFF7DFFC00231800BD4604B080BDB3
:10152000FFB4E024240604256C4001252560FFBC9F
:101530007047FFB4E024240604256C400025256094
:10154000FFBC7047FFB4E124240621680170FFBC92
:101550007047FFB4E124240604256C402168017023
:10156000FFBC7047FFB4E024240605782560FFBC6B
:101570007047FFB4F024240600252560FFBC7047A7
:10158000FFB4E024240640256C402060FFBC704777
:10159000FFB4E024240642256C4000252560FFBCF2
:1015A0007047FFB4E024240644256C402060FFBC53
:1015B0007047FFB4E024240646256C4000252560D2
:1015C000FFBC7047FEE7704700221448144B1549D2
:1015D0001418D018884203D2246804320460F4E757
:1015E000114A904202D2002102C0F9E70F4C104884
:1015F000844202D208CC9847F9E70E4C0E4B9C422D
:1016000002D201CC8047F9E7FEF75AFD0B4C0C499A
:101610008C4202D204CC9047F9E7C0463041000822
:10162000000000203C08002078080020304100081D
:1016300030410008304100083041000830410008C6
:101640003041000810B5034B0100186800F004F8A1
:1016500010BDC04638080020F0B55F464D465646DE
:101660004446F0B40D000B3583B00700162D00D8AA
:10167000A8E007239D4300D5CEE0A94200D9CBE0E6
:1016800000F0DAFAF823FF339D4200D884E26B0AB7
:1016900000D1C5E0042B00D96CE13823A9099C4690
:1016A00001339846884443468C445900C94E89000A
:1016B00071180839CC68A14217D0032362689A4395
:1016C0001300521B0F2A00DDB0E00320002A09DBC3
:1016D0008DE0636883435A1B0F2A00DDA6E0002AD1
:1016E00000DB84E0E468A142F3D14346009332007A
:1016F00034690832944200D18FE103236168994331
:101700000B00481B0F2800DD76E172613261002872
:1017100071DAB14A914200D934E10123C80882103C
:10172000934072681A43C3009B1998687260E36023
:10173000A0609C601300C460012000998A10904052
:10174000984200D975E003420CD1032291430A1D4F
:1017500040000092034205D1009A400004320092FA
:101760000342F9D003239846009AD3009946B14426
:10177000CC4692466346DC68A44507D14FE1002A77
:1017800000DB5FE1E468A44500D148E142466368BC
:1017900093435A1B0F2AF2DD012163190D43656043
:1017A000E068A5680836E86011438560F360B360BF
:1017B0003800DE609E6059609A5000F03FFA2000C9
:1017C000083022E0102927D8380000F035FA10251B
:1017D000062302217F4E9B00F3181A005C68083A2A
:1017E000944200D127E1032362689A431300E26820
:1017F000A168CA6091600122E318596838000A4361
:101800005A6000F01BFA2000083003B03CBC904640
:101810009946A246AB46F0BD0C2300203B60F4E79E
:1018200040239846013B80219C463FE76346009356
:101830005DE70323B46862689A439046AA4203D3E3
:10184000521B0F2A00DD87E023004344634A0193C3
:10185000634B93461B681268EB18013200D157E1C5
:10186000604A944663441B0B1B03009300993800A5
:1018700000F0E6F903008146013361D0019B834209
:1018800000D9FDE0584B009A9A461B689C46534687
:1018900062441A60019B11004B4500D143E15B4655
:1018A0001B68013300D14FE14B46019A9B1A59182E
:1018B0005346196007234A46134000D117E1082117
:1018C00089464A49D21A9144C91A009B38004B44B0
:1018D0001B051B0DCB1A19009B4600F0B1F9431CE8
:1018E00000D135E14B46C01A0123584418435346F2
:1018F0001B685B441900534619604B46B36058603F
:10190000B44213D043460F2B00D8E1E043460722F0
:1019100060680C3B9343063A024005201A4362601C
:10192000E218506090600F2B00D915E1304B1A6817
:10193000914200D919602F4B1A68914200D9196061
:101940000323B46862689A431300521B9D4200D976
:10195000C1E00F2A00DCBEE001232900651919430C
:10196000134361603800B5606B6000F067F92000D8
:1019700008304AE7142B74D9542B00D9B0E0290B56
:101980006E238CE64A0A042A74D9142A00D9C2E0CC
:1019900010005C325B305200082149428C469200B4
:1019A000B2189444624692680B318846944500D13F
:1019B000A0E0414650688843834202D29268944531
:1019C000F7D1D3689C4673686146A260E1608C6081
:1019D000D460B1E600000020FF0100000C040020EC
:1019E000440800200F1000004808002008100000E4
:1019F000400800203C080020012163190D430143E9
:101A0000656073613361DA609A605960185038001C
:101A100000F014F920000830F7E673688CE608231C
:101A20009B46073BDC449B46DA44434652461342FE
:101A300000D09FE633E0DC688A1C0092A34200D10C
:101A400055E6D0E60122E318596838000A435A6087
:101A5000E368A268D3609A6000F0F0F820000830D4
:101A6000D3E65B2294460132904698449C44434618
:101A700059001BE68A0910003932383052008BE7D2
:101A8000B44200D05CE7FDE6009B013B00930823D5
:101A90005B429C46E1444B469B6899457AD143465C
:101AA000009A1342F0D173688343736040009842F8
:101AB00000D9BEE6002800D1BBE6034270D15246F1
:101AC0000092009A4000043200920342F9D04BE6A3
:101AD00001234A465360380000F0B0F8002094E635
:101AE000AA22520093420DD8E90B7723D7E5802133
:101AF0004901EAE601238010834072681343736052
:101B0000624661E7284A934218D8A90C7C23C6E5AF
:101B100010330093AAE6542A26D80A0B10006F321D
:101B20006E30520038E71B0500D0B8E6009BB26863
:101B300043441800012303435360F7E67F2398468C
:101B4000013BFE219C46B1E55B464A461A60B1E680
:101B5000002301209B46CAE621003800083100F02E
:101B6000D1F853461968E1E6AA204000824205D820
:101B7000CA0B10007832773052000DE70A488242D3
:101B800005D88A0C10007D327C30520004E7FE221A
:101B90007E2001E7736889E7E9084B1C5B0019E6C2
:101BA00053460093E0E5C0465405000070B5830736
:101BB0003FD0541E002A3BD0CEB20300032503E0E1
:101BC000621E002C34D0140001335A1E16702B42B2
:101BD000F6D1032C24D9FF250D402A0215432A04EF
:101BE00015430F2C11D92600103E36090136360157
:101BF0001A009B19156055609560D56010329342AC
:101C0000F8D10F221440032C0AD9261FB60801363A
:101C1000B6001A009B1920C29342FCD10322144043
:101C2000002C05D0C9B21C19197001339C42FBD19C
:101C300070BD14000300CCE77047C0467047C04633
:101C4000002370B5064C05000800236000F03CF945
:101C5000431C00D070BD2368002BFBD02B60F9E73C
:101C600074080020F8B50C000600FFF7E5FF204FD0
:101C7000BB685D6803239D431E4B2C1B9C4664443C
:101C8000240B1D4B013C24039C4207DD0021300046
:101C9000FFF7D6FFBB685B19984204D03000FFF70E
:101CA000CDFF0020F8BD61423000FFF7C9FF431CA3
:101CB0000DD001232D1BBA681D43104B55601A68C7
:101CC0003000141B1C60FFF7B9FF0120EAE7002178
:101CD0003000FFF7B5FFBB68C21A0F2ADEDD0849E6
:101CE0000968401A0549086001210A435A60D5E78E
:101CF00000000020EF0F0000FF0F00004808002048
:101D00000C040020F0B54746050080B40C1E3ED000
:101D1000FFF792FF01232100984608394E6842469A
:101D2000330003209343CC1862688243604887687D
:101D3000BC425AD04746626037420BD10827BC46A6
:101D40000E688444891B9B198E68664566D0CF68EF
:101D5000F760BE600126A7187F68374236D0554A23
:101D60001E434E60CB50934214D8DB08FF3A9C10C0
:101D7000FF3AA2404468DB0022434260181883689F
:101D8000C8608B608160D9602800FFF757FF04BCF2
:101D90009046F0BD5A0A042A4FD89C0926003934CF
:101DA00038366400A4000419083CA2680327944252
:101DB0004AD05068B843834202D292689442F8D124
:101DC000D468CC608A60A160D160DDE79B183A4F8F
:101DD000A268BA4240D0E4681E43D460A260354A8B
:101DE0004E60CB509342D5D8BFE79B184246324253
:101DF00006D10A68891A8C689B18CA68E2609460E8
:101E000001242E4A1C4312684C6081609342BBD36C
:101E10002B4B28001968FFF725FFB5E74646A018A9
:101E2000406830423ED1A068D318E268C26090603A
:101E300042461A434A60CB50A6E7142A14D816002B
:101E40005C325B365400ADE70123B610B340426804
:101E5000134343602200B4E71E43D1609160CA601F
:101E60008A604E60CB508FE7542A05D81C0B2600A1
:101E70006F346E36640095E7AA246400A24205D848
:101E8000DC0B26007834773664008BE70D4CA242D9
:101E900005D89C0C26007D347C36640082E7FE2445
:101EA0007E267FE742461A434A60CB506CE7C04625
:101EB00000000020FF0100000800002008040020AE
:101EC0004408002054050000044A1368002B03D086
:101ED0001818106018007047014BF9E770080020CF
:101EE00078080020DA39A3EE5E6B4B0D3255BFEF58
:101EF000956018900123456789ABCDEF1234567871
:101F00009ABCDEF0637C777BF26B6FC53001672B88
:101F1000FED7AB76CA82C97DFA5947F0ADD4A2AFDD
:101F20009CA472C0B7FD9326363FF7CC34A5E5F1EB
:101F300071D8311504C723C31896059A071280E299
:101F4000EB27B27509832C1A1B6E5AA0523BD6B3ED
:101F500029E32F8453D100ED20FCB15B6ACBBE395D
:101F60004A4C58CFD0EFAAFB434D338545F9027F49
:101F7000503C9FA851A3408F929D38F5BCB6DA2102
:101F800010FFF3D2CD0C13EC5F974417C4A77E3D2E
:101F9000645D197360814FDC222A908846EEB81484
:101FA000DE5E0BDBE0323A0A4906245CC2D3AC6247
:101FB0009195E479E7C8376D8DD54EA96C56F4EA52
:101FC000657AAE08BA78252E1CA6B4C6E8DD741F63
:101FD0004BBD8B8A703EB5664803F60E613557B926
:101FE00086C11D9EE1F8981169D98E949B1E87E9E0
:101FF000CE5528DF8CA1890DBFE6426841992D0F8F
:10200000B054BB16C66363A5F87C7C84EE777799E1
:10201000F67B7B8DFFF2F20DD66B6BBDDE6F6FB181
:1020200091C5C5546030305002010103CE6767A9E5
:10203000562B2B7DE7FEFE19B5D7D7624DABABE62D
:10204000EC76769A8FCACA451F82829D89C9C9409B
:10205000FA7D7D87EFFAFA15B25959EB8E4747C9D9
:10206000FBF0F00B41ADADECB3D4D4675FA2A2FDA1
:1020700045AFAFEA239C9CBF53A4A4F7E4727296C9
:102080009BC0C05B75B7B7C2E1FDFD1C3D9393AE2D
:102090004C26266A6C36365A7E3F3F41F5F7F702EA
:1020A00083CCCC4F6834345C51A5A5F4D1E5E5343C
:1020B000F9F1F108E2717193ABD8D8736231315301
:1020C0002A15153F0804040C95C7C75246232365FB
:1020D0009DC3C35E30181828379696A10A05050FD0
:1020E0002F9A9AB50E070709241212361B80809B7F
:1020F000DFE2E23DCDEBEB264E2727697FB2B2CD82
:10210000EA75759F1209091B1D83839E582C2C7438
:10211000341A1A2E361B1B2DDC6E6EB2B45A5AEED0
:102120005BA0A0FBA45252F6763B3B4DB7D6D661DE
:102130007DB3B3CE5229297BDDE3E33E5E2F2F71C1
:1021400013848497A65353F5B9D1D16800000000D9
:10215000C1EDED2C40202060E3FCFC1F79B1B1C83B
:10216000B65B5BEDD46A6ABE8DCBCB4667BEBED98B
:102170007239394B944A4ADE984C4CD4B05858E8DE
:1021800085CFCF4ABBD0D06BC5EFEF2A4FAAAAE5C7
:10219000EDFBFB16864343C59A4D4DD76633335549
:1021A000118585948A4545CFE9F9F91004020206A4
:1021B000FE7F7F81A05050F0783C3C44259F9FBA21
:1021C0004BA8A8E3A25151F35DA3A3FE804040C0F9
:1021D000058F8F8A3F9292AD219D9DBC7038384803
:1021E000F1F5F50463BCBCDF77B6B6C1AFDADA75DA
:1021F0004221216320101030E5FFFF1AFDF3F30E9A
:10220000BFD2D26D81CDCD4C180C0C1426131335D2
:10221000C3ECEC2FBE5F5FE1359797A2884444CCB6
:102220002E17173993C4C45755A7A7F2FC7E7E8298
:102230007A3D3D47C86464ACBA5D5DE73219192B3D
:10224000E6737395C06060A0198181989E4F4FD14D
:10225000A3DCDC7F44222266542A2A7E3B9090AB8A
:102260000B8888838C4646CAC7EEEE296BB8B8D374
:102270002814143CA7DEDE79BC5E5EE2160B0B1D53
:10228000ADDBDB76DBE0E03B64323256743A3A4E4B
:10229000140A0A1E924949DB0C06060A4824246CDB
:1022A000B85C5CE49FC2C25DBDD3D36E43ACACEFFF
:1022B000C46262A6399191A8319595A4D3E4E4371C
:1022C000F279798BD5E7E7328BC8C8436E37375937
:1022D000DA6D6DB7018D8D8CB1D5D5649C4E4ED223
:1022E00049A9A9E0D86C6CB4AC5656FAF3F4F407DB
:1022F000CFEAEA25CA6565AFF47A7A8E47AEAEE9D1
:10230000100808186FBABAD5F07878884A25256F72
:102310005C2E2E72381C1C2457A6A6F173B4B4C7C9
:1023200097C6C651CBE8E823A1DDDD7CE874749C38
:102330003E1F1F21964B4BDD61BDBDDC0D8B8B8697
:102340000F8A8A85E07070907C3E3E4271B5B5C4BC
:10235000CC6666AA904848D806030305F7F6F6014E
:102360001C0E0E12C26161A36A35355FAE5757F974
:1023700069B9B9D01786869199C1C1583A1D1D27F0
:10238000279E9EB9D9E1E138EBF8F8132B9898B362
:1023900022111133D26969BBA9D9D970078E8E89F0
:1023A000339494A72D9B9BB63C1E1E2215878792C3
:1023B000C9E9E92087CECE49AA5555FF502828788B
:1023C000A5DFDF7A038C8C8F59A1A1F80989898058
:1023D0001A0D0D1765BFBFDAD7E6E631844242C653
:1023E000D06868B8824141C3299999B05A2D2D7798
:1023F0001E0F0F117BB0B0CBA85454FC6DBBBBD6E5
:102400002C16163AA5C6636384F87C7C99EE777720
:102410008DF67B7B0DFFF2F2BDD66B6BB1DE6F6F7D
:102420005491C5C55060303003020101A9CE6767E1
:102430007D562B2B19E7FEFE62B5D7D7E64DABAB29
:102440009AEC7676458FCACA9D1F82824089C9C997
:1024500087FA7D7D15EFFAFAEBB25959C98E4747D5
:102460000BFBF0F0EC41ADAD67B3D4D4FD5FA2A29D
:10247000EA45AFAFBF239C9CF753A4A496E47272C5
:102480005B9BC0C0C275B7B71CE1FDFDAE3D939329
:102490006A4C26265A6C3636417E3F3F02F5F7F7E6
:1024A0004F83CCCC5C683434F451A5A534D1E5E538
:1024B00008F9F1F193E2717173ABD8D853623131FD
:1024C0003F2A15150C0804045295C7C765462323F7
:1024D0005E9DC3C328301818A13796960F0A0505CC
:1024E000B52F9A9A090E0707362412129B1B80807B
:1024F0003DDFE2E226CDEBEB694E2727CD7FB2B27E
:102500009FEA75751B1209099E1D838374582C2C34
:102510002E341A1A2D361B1BB2DC6E6EEEB45A5ACC
:10252000FB5BA0A0F6A452524D763B3B61B7D6D6DA
:10253000CE7DB3B37B5229293EDDE3E3715E2F2FBD
:1025400097138484F5A6535368B9D1D100000000D5
:102550002CC1EDED604020201FE3FCFCC879B1B137
:10256000EDB65B5BBED46A6A468DCBCBD967BEBE87
:102570004B723939DE944A4AD4984C4CE8B05858DA
:102580004A85CFCF6BBBD0D02AC5EFEFE54FAAAAC3
:1025900016EDFBFBC5864343D79A4D4D5566333345
:1025A00094118585CF8A454510E9F9F906040202A0
:1025B00081FE7F7FF0A0505044783C3CBA259F9F1D
:1025C000E34BA8A8F3A25151FE5DA3A3C0804040F5
:1025D0008A058F8FAD3F9292BC219D9D48703838FF
:1025E00004F1F5F5DF63BCBCC177B6B675AFDADAD6
:1025F00063422121302010101AE5FFFF0EFDF3F396
:102600006DBFD2D24C81CDCD14180C0C35261313CE
:102610002FC3ECECE1BE5F5FA2359797CC884444B2
:10262000392E17175793C4C4F255A7A782FC7E7E94
:10263000477A3D3DACC86464E7BA5D5D2B32191939
:1026400095E67373A0C0606098198181D19E4F4F49
:102650007FA3DCDC664422227E542A2AAB3B909086
:10266000830B8888CA8C464629C7EEEED36BB8B870
:102670003C28141479A7DEDEE2BC5E5E1D160B0B4F
:1026800076ADDBDB3BDBE0E0566432324E743A3A47
:102690001E140A0ADB9249490A0C06066C482424D7
:1026A000E4B85C5C5D9FC2C26EBDD3D3EF43ACACFB
:1026B000A6C46262A8399191A431959537D3E4E418
:1026C0008BF2797932D5E7E7438BC8C8596E373733
:1026D000B7DA6D6D8C018D8D64B1D5D5D29C4E4E1F
:1026E000E049A9A9B4D86C6CFAAC565607F3F4F4D7
:1026F00025CFEAEAAFCA65658EF47A7AE947AEAECD
:1027000018100808D56FBABA88F078786F4A25256E
:10271000725C2E2E24381C1CF157A6A6C773B4B4C5
:102720005197C6C623CBE8E87CA1DDDD9CE8747434
:10273000213E1F1FDD964B4BDC61BDBD860D8B8B93
:10274000850F8A8A90E07070427C3E3EC471B5B5B8
:10275000AACC6666D89048480506030301F7F6F64A
:10276000121C0E0EA3C261615F6A3535F9AE575770
:10277000D069B9B9911786865899C1C1273A1D1DEC
:10278000B9279E9E38D9E1E113EBF8F8B32B98985E
:1027900033221111BBD2696970A9D9D989078E8EEC
:1027A000A7339494B62D9B9B223C1E1E92158787BF
:1027B00020C9E9E94987CECEFFAA55557850282887
:1027C0007AA5DFDF8F038C8CF859A1A18009898954
:1027D000171A0D0DDA65BFBF31D7E6E6C68442424F
:1027E000B8D06868C3824141B0299999775A2D2D94
:1027F000111E0F0FCB7BB0B0FCA85454D66DBBBBE1
:102800003A2C161663A5C6637C84F87C7799EE771C
:102810007B8DF67BF20DFFF26BBDD66B6FB1DE6F79
:10282000C55491C5305060300103020167A9CE67DD
:102830002B7D562BFE19E7FED762B5D7ABE64DAB25
:10284000769AEC76CA458FCA829D1F82C94089C993
:102850007D87FA7DFA15EFFA59EBB25947C98E47D1
:10286000F00BFBF0ADEC41ADD467B3D4A2FD5FA299
:10287000AFEA45AF9CBF239CA4F753A47296E472C1
:10288000C05B9BC0B7C275B7FD1CE1FD93AE3D9325
:10289000266A4C26365A6C363F417E3FF702F5F7E2
:1028A000CC4F83CC345C6834A5F451A5E534D1E534
:1028B000F108F9F17193E271D873ABD831536231F9
:1028C000153F2A15040C0804C75295C723654623F3
:1028D000C35E9DC31828301896A13796050F0A05C8
:1028E0009AB52F9A07090E0712362412809B1B8077
:1028F000E23DDFE2EB26CDEB27694E27B2CD7FB27A
:10290000759FEA75091B1209839E1D832C74582C30
:102910001A2E341A1B2D361B6EB2DC6E5AEEB45AC8
:10292000A0FB5BA052F6A4523B4D763BD661B7D6D6
:10293000B3CE7DB3297B5229E33EDDE32F715E2FB9
:102940008497138453F5A653D168B9D100000000D1
:10295000ED2CC1ED20604020FC1FE3FCB1C879B133
:102960005BEDB65B6ABED46ACB468DCBBED967BE83
:10297000394B72394ADE944A4CD4984C58E8B058D6
:10298000CF4A85CFD06BBBD0EF2AC5EFAAE54FAABF
:10299000FB16EDFB43C586434DD79A4D3355663341
:1029A0008594118545CF8A45F910E9F9020604029C
:1029B0007F81FE7F50F0A0503C44783C9FBA259F19
:1029C000A8E34BA851F3A251A3FE5DA340C08040F1
:1029D0008F8A058F92AD3F929DBC219D38487038FB
:1029E000F504F1F5BCDF63BCB6C177B6DA75AFDAD2
:1029F0002163422110302010FF1AE5FFF30EFDF392
:102A0000D26DBFD2CD4C81CD0C14180C13352613CA
:102A1000EC2FC3EC5FE1BE5F97A2359744CC8844AE
:102A200017392E17C45793C4A7F255A77E82FC7E90
:102A30003D477A3D64ACC8645DE7BA5D192B321935
:102A40007395E67360A0C060819819814FD19E4F45
:102A5000DC7FA3DC226644222A7E542A90AB3B9082
:102A600088830B8846CA8C46EE29C7EEB8D36BB86C
:102A7000143C2814DE79A7DE5EE2BC5E0B1D160B4B
:102A8000DB76ADDBE03BDBE0325664323A4E743A43
:102A90000A1E140A49DB9249060A0C06246C4824D3
:102AA0005CE4B85CC25D9FC2D36EBDD3ACEF43ACF7
:102AB00062A6C46291A8399195A43195E437D3E414
:102AC000798BF279E732D5E7C8438BC837596E372F
:102AD0006DB7DA6D8D8C018DD564B1D54ED29C4E1B
:102AE000A9E049A96CB4D86C56FAAC56F407F3F4D3
:102AF000EA25CFEA65AFCA657A8EF47AAEE947AEC9
:102B000008181008BAD56FBA7888F078256F4A256A
:102B10002E725C2E1C24381CA6F157A6B4C773B4C1
:102B2000C65197C6E823CBE8DD7CA1DD749CE87430
:102B30001F213E1F4BDD964BBDDC61BD8B860D8B8F
:102B40008A850F8A7090E0703E427C3EB5C471B5B4
:102B500066AACC6648D8904803050603F601F7F646
:102B60000E121C0E61A3C261355F6A3557F9AE576C
:102B7000B9D069B986911786C15899C11D273A1DE8
:102B80009EB9279EE138D9E1F813EBF898B32B985A
:102B90001133221169BBD269D970A9D98E89078EE8
:102BA00094A733949BB62D9B1E223C1E87921587BB
:102BB000E920C9E9CE4987CE55FFAA552878502883
:102BC000DF7AA5DF8C8F038CA1F859A18980098950
:102BD0000D171A0DBFDA65BFE631D7E642C684424B
:102BE00068B8D06841C3824199B029992D775A2D90
:102BF0000F111E0FB0CB7BB054FCA854BBD66DBBDD
:102C0000163A2C166363A5C67C7C84F8777799EE18
:102C10007B7B8DF6F2F20DFF6B6BBDD66F6FB1DE75
:102C2000C5C5549130305060010103026767A9CED9
:102C30002B2B7D56FEFE19E7D7D762B5ABABE64D21
:102C400076769AECCACA458F82829D1FC9C940898F
:102C50007D7D87FAFAFA15EF5959EBB24747C98ECD
:102C6000F0F00BFBADADEC41D4D467B3A2A2FD5F95
:102C7000AFAFEA459C9CBF23A4A4F753727296E4BD
:102C8000C0C05B9BB7B7C275FDFD1CE19393AE3D21
:102C900026266A4C36365A6C3F3F417EF7F702F5DE
:102CA000CCCC4F8334345C68A5A5F451E5E534D130
:102CB000F1F108F9717193E2D8D873AB31315362F5
:102CC00015153F2A04040C08C7C7529523236546EF
:102CD000C3C35E9D181828309696A13705050F0AC4
:102CE0009A9AB52F0707090E1212362480809B1B73
:102CF000E2E23DDFEBEB26CD2727694EB2B2CD7F76
:102D000075759FEA09091B1283839E1D2C2C74582C
:102D10001A1A2E341B1B2D366E6EB2DC5A5AEEB4C4
:102D2000A0A0FB5B5252F6A43B3B4D76D6D661B7D2
:102D3000B3B3CE7D29297B52E3E33EDD2F2F715EB5
:102D4000848497135353F5A6D1D168B900000000CD
:102D5000EDED2CC120206040FCFC1FE3B1B1C8792F
:102D60005B5BEDB66A6ABED4CBCB468DBEBED9677F
:102D700039394B724A4ADE944C4CD4985858E8B0D2
:102D8000CFCF4A85D0D06BBBEFEF2AC5AAAAE54FBB
:102D9000FBFB16ED4343C5864D4DD79A333355663D
:102DA000858594114545CF8AF9F910E90202060498
:102DB0007F7F81FE5050F0A03C3C44789F9FBA2515
:102DC000A8A8E34B5151F3A2A3A3FE5D4040C080ED
:102DD0008F8F8A059292AD3F9D9DBC2138384870F7
:102DE000F5F504F1BCBCDF63B6B6C177DADA75AFCE
:102DF0002121634210103020FFFF1AE5F3F30EFD8E
:102E0000D2D26DBFCDCD4C810C0C141813133526C6
:102E1000ECEC2FC35F5FE1BE9797A2354444CC88AA
:102E20001717392EC4C45793A7A7F2557E7E82FC8C
:102E30003D3D477A6464ACC85D5DE7BA19192B3231
:102E4000737395E66060A0C0818198194F4FD19E41
:102E5000DCDC7FA3222266442A2A7E549090AB3B7E
:102E60008888830B4646CA8CEEEE29C7B8B8D36B68
:102E700014143C28DEDE79A75E5EE2BC0B0B1D1647
:102E8000DBDB76ADE0E03BDB323256643A3A4E743F
:102E90000A0A1E144949DB9206060A0C24246C48CF
:102EA0005C5CE4B8C2C25D9FD3D36EBDACACEF43F3
:102EB0006262A6C49191A8399595A431E4E437D310
:102EC00079798BF2E7E732D5C8C8438B3737596E2B
:102ED0006D6DB7DA8D8D8C01D5D564B14E4ED29C17
:102EE000A9A9E0496C6CB4D85656FAACF4F407F3CF
:102EF000EAEA25CF6565AFCA7A7A8EF4AEAEE947C5
:102F000008081810BABAD56F787888F025256F4A66
:102F10002E2E725C1C1C2438A6A6F157B4B4C773BD
:102F2000C6C65197E8E823CBDDDD7CA174749CE82C
:102F30001F1F213E4B4BDD96BDBDDC618B8B860D8B
:102F40008A8A850F707090E03E3E427CB5B5C471B0
:102F50006666AACC4848D89003030506F6F601F742
:102F60000E0E121C6161A3C235355F6A5757F9AE68
:102F7000B9B9D06986869117C1C158991D1D273AE4
:102F80009E9EB927E1E138D9F8F813EB9898B32B56
:102F9000111133226969BBD2D9D970A98E8E8907E4
:102FA0009494A7339B9BB62D1E1E223C87879215B7
:102FB000E9E920C9CECE49875555FFAA282878507F
:102FC000DFDF7AA58C8C8F03A1A1F859898980094C
:102FD0000D0D171ABFBFDA65E6E631D74242C68447
:102FE0006868B8D04141C3829999B0292D2D775A8C
:102FF0000F0F111EB0B0CB7B5454FCA8BBBBD66DD9
:1030000016163A2C52096AD53036A538BF40A39E11
:1030100081F3D7FB7CE339829B2FFF87348E4344B7
:10302000C4DEE9CB547B9432A6C2233DEE4C950B13
:1030300042FAC34E082EA16628D924B2765BA24973
:103040006D8BD12572F8F66486689816D4A45CCC92
:103050005D65B6926C704850FDEDB9DA5E15465765
:10306000A78D9D8490D8AB008CBCD30AF7E458059B
:10307000B8B34506D02C1E8FCA3F0F02C1AFBD03A7
:1030800001138A6B3A9111414F67DCEA97F2CFCE78
:10309000F0B4E67396AC7422E7AD3585E2F937E813
:1030A0001C75DF6E47F11A711D29C5896FB7620E55
:1030B000AA18BE1BFC563E4BC6D279209ADBC0FE36
:1030C00078CD5AF41FDDA8338807C731B1121059E3
:1030D0002780EC5F60517FA919B54A0D2DE57A9FD5
:1030E00093C99CEFA0E03B4DAE2AF5B0C8EBBB3CCA
:1030F00083539961172B047EBA77D626E16914634E
:1031000055210C7D51F4A7507E4165531A17A4C375
:103110003A275E963BAB6BCB1F9D45F1ACFA58ABA3
:103120004BE303932030FA55AD766DF688CC76915B
:10313000F5024C254FE5D7FCC52ACBD72635448070
:10314000B562A38FDEB15A4925BA1B6745EA0E98CE
:103150005DFEC0E1C32F7502814CF0128D4697A32E
:103160006BD3F9C6038F5FE715929C95BF6D7AEB21
:10317000955259DAD4BE832D587421D349E0692978
:103180008EC9C84475C2896AF48E797899583E6BA5
:1031900027B971DDBEE14FB6F088AD17C920AC6626
:1031A0007DCE3AB463DF4A18E51A31829751336015
:1031B00062537F45B16477E0BB6BAE84FE81A01C97
:1031C000F9082B94704868588F45FD1994DE6C8778
:1031D000527BF8B7AB73D323724B02E2E31F8F57D6
:1031E0006655AB2AB2EB28072FB5C20386C57B9A7A
:1031F000D33708A5302887F223BFA5B202036ABAE5
:10320000ED16825C8ACF1C2BA779B492F307F2F0FB
:103210004E69E2A165DAF4CD0605BED5D134621F50
:10322000C4A6FE8A342E539DA2F355A0058AE1322E
:10323000A4F6EB750B83EC394060EFAA5E719F0634
:10324000BD6E10513E218AF996DD063DDD3E05AE8C
:103250004DE6BD4691548DB571C45D050406D46F2D
:10326000605015FF1998FB24D6BDE997894043CCDF
:1032700067D99E77B0E842BD07898B88E7195B382C
:1032800079C8EEDBA17C0A477C420FE9F8841EC9AD
:103290000000000009808683322BED481E1170ACBF
:1032A0006C5A724EFD0EFFFB0F8538563DAED51E93
:1032B000362D39270A0FD964685CA6219B5B54D14F
:1032C00024362E3A0C0A67B19357E70FB4EE96D224
:1032D0001B9B919E80C0C54F61DC20A25A774B6931
:1032E0001C121A16E293BA0AC0A02AE53C22E04357
:1032F000121B171D0E090D0BF28BC7AD2DB6A8B909
:10330000141EA9C857F11985AF75074CEE99DDBB9E
:10331000A37F60FDF701269F5C72F5BC44663BC548
:103320005BFB7E348B432976CB23C6DCB6EDFC6891
:10333000B8E4F163D731DCCA4263851013972240A9
:1033400084C61120854A247DD2BB3DF8AEF93211E6
:10335000C729A16D1D9E2F4BDCB230F30D8652ECB8
:1033600077C1E3D02BB3166CA970B999119448FAC0
:1033700047E96422A8FC8CC4A0F03F1A567D2CD8E3
:10338000223390EF87494EC7D938D1C18CCAA2FEEB
:1033900098D40B36A6F581CFA57ADE28DAB78E262B
:1033A0003FADBFA42C3A9DE45078920D6A5FCC9B50
:1033B000547E4662F68D13C290D8B8E82E39F75E77
:1033C00082C3AFF59F5D80BE69D0937C6FD52DA978
:1033D000CF2512B3C8AC993B10187DA7E89C636E4B
:1033E000DB3BBB7BCD2678096E5918F4EC9AB7010C
:1033F000834F9AA8E6956E65AAFFE67E21BCCF08AA
:10340000EF15E8E6BAE79BD94A6F36CEEA9F09D4B2
:1034100029B07CD631A4B2AF2A3F2331C6A594305F
:1034200035A266C0744EBC37FC82CAA6E090D0B00C
:1034300033A7D815F104984A41ECDAF77FCD500E46
:103440001791F62F764DD68D43EFB04DCCAA4D5443
:10345000E49604DF9ED1B5E34C6A881BC12C1FB8EB
:103460004665517F9D5EEA04018C355DFA87747371
:10347000FB0B412EB3671D5A92DBD252E910563333
:103480006DD647139AD7618C37A10C7A59F8148EF0
:10349000EB133C89CEA927EEB761C935E11CE5EDF8
:1034A0007A47B13C9CD2DF5955F2733F1814CE795C
:1034B00073C737BF53F7CDEA5FFDAA5BDF3D6F14DB
:1034C0007844DB86CAAFF381B968C43E3824342C13
:1034D000C2A3405F161DC372BCE2250C283C498B79
:1034E000FF0D954139A80171080CB3DED8B4E49CF6
:1034F0006456C1907BCB8461D532B670486C5C74E5
:10350000D0B857425051F4A7537E4165C31A17A44F
:10351000963A275ECB3BAB6BF11F9D45ABACFA589F
:10352000934BE303552030FAF6AD766D9188CC7657
:1035300025F5024CFC4FE5D7D7C52ACB802635446C
:103540008FB562A349DEB15A6725BA1B9845EA0ECA
:10355000E15DFEC002C32F7512814CF0A38D46972A
:10356000C66BD3F9E7038F5F9515929CEBBF6D7A1D
:10357000DA9552592DD4BE83D35874212949E06974
:10358000448EC9C86A75C28978F48E796B99583EA1
:10359000DD27B971B6BEE14F17F088AD66C920AC22
:1035A000B47DCE3A1863DF4A82E51A316097513311
:1035B0004562537FE0B1647784BB6BAE1CFE81A093
:1035C00094F9082B58704868198F45FD8794DE6C74
:1035D000B7527BF823AB73D3E2724B0257E31F8FD2
:1035E0002A6655AB07B2EB28032FB5C29A86C57B76
:1035F000A5D33708F2302887B223BFA5BA02036AE1
:103600005CED16822B8ACF1C92A779B4F0F307F2F7
:10361000A14E69E2CD65DAF4D50605BE1FD134624C
:103620008AC4A6FE9D342E53A0A2F35532058AE12A
:1036300075A4F6EB390B83ECAA4060EF065E719F30
:1036400051BD6E10F93E218A3D96DD06AEDD3E0588
:10365000464DE6BDB591548D0571C45D6F0406D429
:10366000FF605015241998FB97D6BDE9CC894043DB
:103670007767D99EBDB0E8428807898B38E7195B28
:10368000DB79C8EE47A17C0AE97C420FC9F8841EA9
:10369000000000008309808648322BEDAC1E1170BB
:1036A0004E6C5A72FBFD0EFF560F85381E3DAED58F
:1036B00027362D39640A0FD921685CA6D19B5B544B
:1036C0003A24362EB10C0A670F9357E7D2B4EE9620
:1036D0009E1B9B914F80C0C5A261DC20695A774B2D
:1036E000161C121A0AE293BAE5C0A02A433C22E053
:1036F0001D121B170B0E090DADF28BC7B92DB6A805
:10370000C8141EA98557F1194CAF7507BBEE99DD9A
:10371000FDA37F609FF70126BC5C72F5C544663B44
:10372000345BFB7E768B4329DCCB23C668B6EDFC8D
:1037300063B8E4F1CAD731DC1042638540139722A5
:103740002084C6117D854A24F8D2BB3D11AEF932E2
:103750006DC729A14B1D9E2FF3DCB230EC0D8652B4
:10376000D077C1E36C2BB31699A970B9FA119448BC
:103770002247E964C4A8FC8C1AA0F03FD8567D2CDF
:10378000EF223390C787494EC1D938D1FE8CCAA2E7
:103790003698D40BCFA6F58128A57ADE26DAB78E27
:1037A000A43FADBFE42C3A9D0D5078929B6A5FCC4C
:1037B00062547E46C2F68D13E890D8B85E2E39F773
:1037C000F582C3AFBE9F5D807C69D093A96FD52D74
:1037D000B3CF25123BC8AC99A710187D6EE89C6347
:1037E0007BDB3BBB09CD2678F46E591801EC9AB708
:1037F000A8834F9A65E6956E7EAAFFE60821BCCFA6
:10380000E6EF15E8D9BAE79BCE4A6F36D4EA9F09AE
:10381000D629B07CAF31A4B2312A3F2330C6A5945B
:10382000C035A26637744EBCA6FC82CAB0E090D008
:103830001533A7D84AF10498F741ECDA0E7FCD5042
:103840002F1791F68D764DD64D43EFB054CCAA4D3F
:10385000DFE49604E39ED1B51B4C6A88B8C12C1FE7
:103860007F466551049D5EEA5D018C3573FA87746D
:103870002EFB0B415AB3671D5292DBD233E910562F
:10388000136DD6478C9AD7617A37A10C8E59F814EC
:1038900089EB133CEECEA92735B761C9EDE11CE5F4
:1038A0003C7A47B1599CD2DF3F55F273791814CE58
:1038B000BF73C737EA53F7CD5B5FFDAA14DF3D6FD7
:1038C000867844DB81CAAFF33EB968C42C3824340F
:1038D0005FC2A34072161DC30CBCE2258B283C4975
:1038E00041FF0D957139A801DE080CB39CD8B4E4F2
:1038F000906456C1617BCB8470D532B674486C5CE1
:1039000042D0B857A75051F465537E41A4C31A174B
:103910005E963A276BCB3BAB45F11F9D58ABACFA9B
:1039200003934BE3FA5520306DF6AD76769188CC53
:103930004C25F502D7FC4FE5CBD7C52A4480263568
:10394000A38FB5625A49DEB11B6725BA0E9845EAC6
:10395000C0E15DFE7502C32FF012814C97A38D4626
:10396000F9C66BD35FE7038F9C9515927AEBBF6D19
:1039700059DA9552832DD4BE21D35874692949E070
:10398000C8448EC9896A75C27978F48E3E6B99589D
:1039900071DD27B94FB6BEE1AD17F088AC66C9201E
:1039A0003AB47DCE4A1863DF3182E51A336097510D
:1039B0007F45625377E0B164AE84BB6BA01CFE818F
:1039C0002B94F90868587048FD198F456C8794DE70
:1039D000F8B7527BD323AB7302E2724B8F57E31FCE
:1039E000AB2A66552807B2EBC2032FB57B9A86C572
:1039F00008A5D33787F23028A5B223BF6ABA0203DD
:103A0000825CED161C2B8ACFB492A779F2F0F307F3
:103A1000E2A14E69F4CD65DABED50605621FD13448
:103A2000FE8AC4A6539D342E55A0A2F3E132058A26
:103A3000EB75A4F6EC390B83EFAA40609F065E712C
:103A40001051BD6E8AF93E21063D96DD05AEDD3E84
:103A5000BD464DE68DB591545D0571C4D46F040625
:103A600015FF6050FB241998E997D6BD43CC8940D7
:103A70009E7767D942BDB0E88B8807895B38E71924
:103A8000EEDB79C80A47A17C0FE97C421EC9F884A5
:103A90000000000086830980ED48322B70AC1E11B7
:103AA000724E6C5AFFFBFD0E38560F85D51E3DAE8B
:103AB0003927362DD9640A0FA621685C54D19B5B47
:103AC0002E3A243667B10C0AE70F935796D2B4EE1C
:103AD000919E1B9BC54F80C020A261DC4B695A7729
:103AE0001A161C12BA0AE2932AE5C0A0E0433C224F
:103AF000171D121B0D0B0E09C7ADF28BA8B92DB601
:103B0000A9C8141E198557F1074CAF75DDBBEE9996
:103B100060FDA37F269FF701F5BC5C723BC5446640
:103B20007E345BFB29768B43C6DCCB23FC68B6ED89
:103B3000F163B8E4DCCAD7318510426322401397A1
:103B4000112084C6247D854A3DF8D2BB3211AEF9DE
:103B5000A16DC7292F4B1D9E30F3DCB252EC0D86B0
:103B6000E3D077C1166C2BB3B999A97048FA1194B8
:103B7000642247E98CC4A8FC3F1AA0F02CD8567DDB
:103B800090EF22334EC78749D1C1D938A2FE8CCAE3
:103B90000B3698D481CFA6F5DE28A57A8E26DAB723
:103BA000BFA43FAD9DE42C3A920D5078CC9B6A5F48
:103BB0004662547E13C2F68DB8E890D8F75E2E396F
:103BC000AFF582C380BE9F5D937C69D02DA96FD570
:103BD00012B3CF25993BC8AC7DA71018636EE89C43
:103BE000BB7BDB3B7809CD2618F46E59B701EC9A04
:103BF0009AA8834F6E65E695E67EAAFFCF0821BCA2
:103C0000E8E6EF159BD9BAE736CE4A6F09D4EA9FAA
:103C10007CD629B0B2AF31A423312A3F9430C6A557
:103C200066C035A2BC37744ECAA6FC82D0B0E09004
:103C3000D81533A7984AF104DAF741EC500E7FCD3E
:103C4000F62F1791D68D764DB04D43EF4D54CCAA3B
:103C500004DFE496B5E39ED1881B4C6A1FB8C12CE3
:103C6000517F4665EA049D5E355D018C7473FA8769
:103C7000412EFB0B1D5AB367D25292DB5633E9102B
:103C800047136DD6618C9AD70C7A37A1148E59F8E8
:103C90003C89EB1327EECEA9C935B761E5EDE11CF0
:103CA000B13C7A47DF599CD2733F55F2CE79181454
:103CB00037BF73C7CDEA53F7AA5B5FFD6F14DF3DD3
:103CC000DB867844F381CAAFC43EB968342C38240B
:103CD000405FC2A3C372161D250CBCE2498B283C71
:103CE0009541FF0D017139A8B3DE080CE49CD8B4EE
:103CF000C190645684617BCBB670D5325C74486CDD
:103D00005742D0B8F4A750514165537E17A4C31A47
:103D1000275E963AAB6BCB3B9D45F11FFA58ABAC97
:103D2000E303934B30FA5520766DF6ADCC7691884F
:103D3000024C25F5E5D7FC4F2ACBD7C53544802664
:103D400062A38FB5B15A49DEBA1B6725EA0E9845C2
:103D5000FEC0E15D2F7502C34CF012814697A38D22
:103D6000D3F9C66B8F5FE703929C95156D7AEBBF15
:103D70005259DA95BE832DD47421D358E06929496C
:103D8000C9C8448EC2896A758E7978F4583E6B9999
:103D9000B971DD27E14FB6BE88AD17F020AC66C91A
:103DA000CE3AB47DDF4A18631A3182E55133609709
:103DB000537F45626477E0B16BAE84BB81A01CFE8B
:103DC000082B94F94868587045FD198FDE6C87946C
:103DD0007BF8B75273D323AB4B02E2721F8F57E3CA
:103DE00055AB2A66EB2807B2B5C2032FC57B9A866E
:103DF0003708A5D32887F230BFA5B223036ABA02D9
:103E000016825CEDCF1C2B8A79B492A707F2F0F3EF
:103E100069E2A14EDAF4CD6505BED50634621FD144
:103E2000A6FE8AC42E539D34F355A0A28AE1320522
:103E3000F6EB75A483EC390B60EFAA40719F065E28
:103E40006E1051BD218AF93EDD063D963E05AEDD80
:103E5000E6BD464D548DB591C45D057106D46F0421
:103E60005015FF6098FB2419BDE997D64043CC89D3
:103E7000D99E7767E842BDB0898B8807195B38E720
:103E8000C8EEDB797C0A47A1420FE97C841EC9F8A1
:103E900000000000808683092BED48321170AC1EB3
:103EA0005A724E6C0EFFFBFD8538560FAED51E3D87
:103EB0002D3927360FD9640A5CA621685B54D19B43
:103EC000362E3A240A67B10C57E70F93EE96D2B418
:103ED0009B919E1BC0C54F80DC20A261774B695A25
:103EE000121A161C93BA0AE2A02AE5C022E0433C4B
:103EF0001B171D12090D0B0E8BC7ADF2B6A8B92DFD
:103F00001EA9C814F119855775074CAF99DDBBEE92
:103F10007F60FDA301269FF772F5BC5C663BC5443C
:103F2000FB7E345B4329768B23C6DCCBEDFC68B685
:103F3000E4F163B831DCCAD763851042972240139D
:103F4000C61120844A247D85BB3DF8D2F93211AEDA
:103F500029A16DC79E2F4B1DB230F3DC8652EC0DAC
:103F6000C1E3D077B3166C2B70B999A99448FA11B4
:103F7000E9642247FC8CC4A8F03F1AA07D2CD856D7
:103F80003390EF22494EC78738D1C1D9CAA2FE8CDF
:103F9000D40B3698F581CFA67ADE28A5B78E26DA1F
:103FA000ADBFA43F3A9DE42C78920D505FCC9B6A44
:103FB0007E4662548D13C2F6D8B8E89039F75E2E6B
:103FC000C3AFF5825D80BE9FD0937C69D52DA96F6C
:103FD0002512B3CFAC993BC8187DA7109C636EE83F
:103FE0003BBB7BDB267809CD5918F46E9AB701EC00
:103FF0004F9AA883956E65E6FFE67EAABCCF08219E
:1040000015E8E6EFE79BD9BA6F36CE4A9F09D4EAA6
:10401000B07CD629A4B2AF313F23312AA59430C653
:10402000A266C0354EBC377482CAA6FC90D0B0E000
:10403000A7D8153304984AF1ECDAF741CD500E7F3A
:1040400091F62F174DD68D76EFB04D43AA4D54CC37
:104050009604DFE4D1B5E39E6A881B4C2C1FB8C1DF
:1040600065517F465EEA049D8C355D01877473FA65
:104070000B412EFB671D5AB3DBD25292105633E927
:10408000D647136DD7618C9AA10C7A37F8148E59E4
:10409000133C89EBA927EECE61C935B71CE5EDE1EC
:1040A00047B13C7AD2DF599CF2733F5514CE791850
:1040B000C737BF73F7CDEA53FDAA5B5F3D6F14DFCF
:1040C00044DB8678AFF381CA68C43EB924342C3807
:1040D000A3405FC21DC37216E2250CBC3C498B286D
:1040E0000D9541FFA80171390CB3DE08B4E49CD8EA
:1040F00056C19064CB84617B32B670D56C5C7448D9
:10410000B85742D001000000020000000400000087
:104110000800000010000000200000004000000027
:10412000800000001B00000036000000430000007B
:10413000000000000000000000000020000000203F
:1041400008000020080000201000002010000020BF
:10415000180000201800002020000020200000206F
:10416000280000202800002030000020300000201F
:1041700038000020380000204000002040000020CF
:10418000480000204800002050000020500000207F
:10419000580000205800002060000020600000202F
:1041A00068000020680000207000002070000020DF
:1041B000780000207800002080000020800000208F
:1041C000880000208800002090000020900000203F
:1041D0009800002098000020A0000020A0000020EF
:1041E000A8000020A8000020B0000020B00000209F
:1041F000B8000020B8000020C0000020C00000204F
:10420000C8000020C8000020D0000020D0000020FE
:10421000D8000020D8000020E0000020E0000020AE
:10422000E8000020E8000020F0000020F00000205E
:10423000F8000020F800002000010020000100200C
:1042400008010020080100201001002010010020BA
:10425000180100201801002020010020200100206A
:10426000280100202801002030010020300100201A
:1042700038010020380100204001002040010020CA
:10428000480100204801002050010020500100207A
:10429000580100205801002060010020600100202A
:1042A00068010020680100207001002070010020DA
:1042B000780100207801002080010020800100208A
:1042C000880100208801002090010020900100203A
:1042D0009801002098010020A0010020A0010020EA
:1042E000A8010020A8010020B0010020B00100209A
:1042F000B8010020B8010020C0010020C00100204A
:10430000C8010020C8010020D0010020D0010020F9
:10431000D8010020D8010020E0010020E0010020A9
:10432000E8010020E8010020F0010020F001002059
:10433000F8010020F8010020000200200002002007
:1043400008020020080200201002002010020020B5
:104350001802002018020020200200202002002065
:104360002802002028020020300200203002002015
:1043700038020020380200204002002040020020C5
:104380004802002048020020500200205002002075
:104390005802002058020020600200206002002025
:1043A00068020020680200207002002070020020D5
:1043B0007802002078020020800200208002002085
:1043C0008802002088020020900200209002002035
:1043D0009802002098020020A0020020A0020020E5
:1043E000A8020020A8020020B0020020B002002095
:1043F000B8020020B8020020C0020020C002002045
:10440000C8020020C8020020D0020020D0020020F4
:10441000D8020020D8020020E0020020E0020020A4
:10442000E8020020E8020020F0020020F002002054
:10443000F8020020F8020020000300200003002002
:1044400008030020080300201003002010030020B0
:104450001803002018030020200300202003002060
:104460002803002028030020300300203003002010
:1044700038030020380300204003002040030020C0
:104480004803002048030020500300205003002070
:104490005803002058030020600300206003002020
:1044A00068030020680300207003002070030020D0
:1044B0007803002078030020800300208003002080
:1044C0008803002088030020900300209003002030
:1044D0009803002098030020A0030020A0030020E0
:1044E000A8030020A8030020B0030020B003002090
:1044F000B8030020B8030020C0030020C003002040
:10450000C8030020C8030020D0030020D0030020EF
:10451000D8030020D8030020E0030020E00300209F
:10452000E8030020E8030020F0030020F00300204F
:10453000F8030020F803002000000200FFFFFFFF47
:1045400000000000FC06002064070020CC070020CB
:10455000000000000000000000000000000000005B
:10456000000000000000000000000000000000004B
:10457000000000002C4100080000000000000000C6
:10458000000000000000000000000000000000002B
:10459000000000000000000000000000000000001B
:1045A000000000000000000000000000000000000B
:1045B00000000000000000000000000000000000FB
:1045C00000000000000000000000000000000000EB
:1045D00000000000000000000000000000000000DB
:1045E00000000000000000000100000000000000CA
:1045F0000E33CDAB34126DE6ECDE05000B0000008F
:1046000000000000000000000000000000000000AA
:10461000000000000000000000000000000000009A
:10462000000000000000000000000000000000008A
:10463000000000000000000000000000000000007A
:0C49600000000000000000001004002017
:04000005080015C911
:00000001FF
