S00F000072756E74696D652E7372656311
S3150800000000200020A10400089D0400089B040008A5
S3150800001000000000000000000000000000000000D2
S315080000200000000000000000000000009D04000819
S3150800003000000000000000009D0400089D04000860
S315080000409B0400089B0400089B0400089B04000806
S315080000509B0400089B0400089B0400089B040008F6
S315080000609B0400089B0400089B0400089B040008E6
S315080000709B0400089B0400089B0400089B040008D6
S315080000809B0400089B0400089B0400089B040008C6
S315080000909B0400089B0400089B0400089B040008B6
S315080000A09B0400089B0400089B0400089B040008A6
S315080000B09B0400089B0400089B0400089B04000896
S315080000C0F0B503208BB000F029FA0390182000F051
S315080000D025FA0490FA20400000F020FA00220400D5
S315080000E0049B18330993049B09991A7001338B42B0
S315080000F0FAD1042000F012FAB54B682718600420DC
S3150800010000F00CFAB34B1860042000F007FAB24B63
S315080001101860002307930023069300230593694676
S315080001202020AE4B079A0918D25C049D08920978DC
S31508000130039A1170069AD65C039A5670059AD35C90
S31508000140039A9370280000F068F9099B01359D42CF
S31508000150F8D1089B052B10D801238B222370462340
S31508000160A270443A2271063AA2711F32627267700F
S31508000170E3706771E371513A1CE0089B6770082BBE
S315080001800BD18B2239332370A2700533843A22713E
S31508000190E3706771E371B9320AE001238B22237099
S315080001A04623A270443A2271E3706771E37179328B
S315080001B0A27163722272E372A2726773052E0CD85B
S315080001C08323462223734133A3737B3B237417335C
S315080001D0E374E7736274543B14E0082E08D1C32312
S315080001E0462223733F3BA373E77362743C3307E0ED
S315080001F08323462223734133A373E7736274043B54
S315080002002374E27462756922A3742375039BE275ED
S315080002109B78052B0BD80521A1754C316276A17602
S31508000220233A0F3161772276E276523918E0082BA5
S315080002300DD1452162760622A17522760131BA32A0
S31508000240E176A27661772277E177A2770BE005213E
S3150800025062764622A175BB312276E276A17662776E
S315080002602177E277A1772021A21CD177621CC031C1
S31508000270D177221DDA39D1770021E21CD1778C4655
S3150800028021210420A21DD177621DD0773C3003328C
S31508000290D077E21D0830D077223211704738013AFC
S315080002A010706020D0700120023210706046D17044
S315080002B00232107046208825D07046202600023269
S315080002C01570D0702F3D02321570039A33361578A3
S315080002D05B006A00052D23D8414DA85CAA185578FD
S315080002E022003232307015702500039A3D4E52783E
S315080002F035355200B05CB218287055782200343271
S315080003001570394A2500D65CD3185A782300373534
S3150800031036332E701A70462202335A70C02221E0F4
S31508000320462030702000C025323005702C4DAE5C5A
S31508000330AA18C67050782200343210702000039A2A
S31508000340284D527837305200AE5CAA18067050789D
S315080003502200363210702448C55CC318D5705A7806
S31508000360230038331A706246D97002331A70602235
S31508000370DA70012202331A70BC22DA700233433271
S315080003801A70B83ADA70293202331A701049124BC9
S31508000390104A00941B6812680968049800F026F849
S315080003A0059B01330593052B00D0B8E6069B013360
S315080003B00693052B00D0B0E6079B01330793052B60
S315080003C000D0A8E600F040F800200BB0F0BDC0460B
S315080003D0CC080020D0080020D40800200000002007
S315080003E0050000203300002061000020FFB4884685
S315080003F091469A46A746FFB4E024240604256C4095
S3150800040001252560FFBC7047FFB4E02424060425B7
S315080004106C4000252560FFBC7047FFB4E124240624
S3150800042021680170FFBC7047FFB4E1242406042547
S315080004306C4021680170FFBC7047FFB4E0242406B5
S3150800044005782560FFBC7047FFB4F0242406002514
S315080004502560FFBC7047FFB4E024240640256C40A5
S315080004602060FFBC7047FFB4E024240642256C4098
S3150800047000252560FFBC7047FFB4E0242406442508
S315080004806C402060FFBC7047FFB4E0242406462574
S315080004906C4000252560FFBC7047FEE770470000EA
S315080004A000221448144B15491418D018884203D250
S315080004B0246804320460F4E7114A904202D200210B
S315080004C002C0F9E70F4C1048844202D208CC98477C
S315080004D0F9E70E4C0E4B9C4202D201CC8047F9E755
S315080004E0FFF7EEFD0B4C0C498C4202D204CC904728
S315080004F0F9E7C046340D000800000020CC080020AB
S3150800050014090020340D0008340D0008340D0008C5
S31508000510340D0008340D0008340D000810B5034BDF
S315080005200100186800F004F810BDC046C80800208D
S31508000530F0B55F464D4656464446F0B40D000B35B9
S3150800054083B00700162D00D8A8E007239D4300D5E1
S31508000550CEE0A94200D9CBE000F094FAF823FF33A5
S315080005609D4200D884E26B0A00D1C5E0042B00D96D
S315080005706CE13823A9099C460133984688444346CA
S315080005808C445900C94E890071180839CC68A142B3
S3150800059017D0032362689A431300521B0F2A00DD03
S315080005A0B0E00320002A09DB8DE0636883435A1B09
S315080005B00F2A00DDA6E0002A00DB84E0E468A142F9
S315080005C0F3D143460093320034690832944200D18D
S315080005D08FE10323616899430B00481B0F2800DD50
S315080005E076E172613261002871DAB14A914200D926
S315080005F034E10123C8088210934072681A43C30085
S315080006009B1998687260E360A0609C601300C460E0
S31508000610012000998A109040984200D975E003425B
S315080006200CD1032291430A1D40000092034205D1D2
S31508000630009A4000043200920342F9D003239846F8
S31508000640009AD3009946B144CC4692466346DC6884
S31508000650A44507D14FE1002A00DB5FE1E468A44521
S3150800066000D148E14246636893435A1B0F2AF2DDDC
S31508000670012163190D436560E068A5680836E860DE
S3150800068011438560F360B3603800DE609E60596090
S315080006909A5000F0F9F92000083022E0102927D8EE
S315080006A0380000F0EFF91025062302217F4E9B0043
S315080006B0F3181A005C68083A944200D127E103232C
S315080006C062689A431300E268A168CA6091600122D1
S315080006D0E318596838000A435A6000F0D5F9200033
S315080006E0083003B03CBC90469946A246AB46F0BDDE
S315080006F00C2300203B60F4E740239846013B802109
S315080007009C463FE7634600935DE70323B468626847
S315080007109A439046AA4203D3521B0F2A00DD87E06C
S3150800072023004344634A0193634B93461B6812684C
S31508000730EB18013200D157E1604A944663441B0B1B
S315080007401B0300930099380000F0A0F903008146C6
S31508000750013361D0019B834200D9FDE0584B009AD2
S315080007609A461B689C46534662441A60019B1100D0
S315080007704B4500D143E15B461B68013300D14FE18D
S315080007804B46019A9B1A59185346196007234A463D
S31508000790134000D117E1082189464A49D21A9144E3
S315080007A0C91A009B38004B441B051B0DCB1A1900B0
S315080007B09B4600F06BF9431C00D135E14B46C01A45
S315080007C001235844184353461B685B441900534693
S315080007D019604B46B3605860B44213D043460F2B9A
S315080007E000D8E1E04346072260680C3B9343063A8B
S315080007F0024005201A436260E218506090600F2B91
S3150800080000D915E1304B1A68914200D919602F4B6F
S315080008101A68914200D919600323B46862689A433A
S315080008201300521B9D4200D9C1E00F2A00DCBEE02E
S315080008300123290065191943134361603800B5601F
S315080008406B6000F021F9200008304AE7142B74D9B0
S31508000850542B00D9B0E0290B6E238CE64A0A042AE9
S3150800086074D9142A00D9C2E010005C325B305200F9
S31508000870082149428C469200B2189444624692680E
S315080008800B318846944500D1A0E04146506888431C
S31508000890834202D292689445F7D1D3689C4673681E
S315080008A06146A260E1608C60D460B1E690000020E9
S315080008B0FF0100009C040020E00800200F10000043
S315080008C0E408002008100000DC080020D8080020F2
S315080008D0012163190D430143656073613361DA6071
S315080008E09A6059601850380000F0CEF82000083099
S315080008F0F7E673688CE608239B46073BDC449B4671
S31508000900DA4443465246134200D09FE633E0DC6899
S315080009108A1C0092A34200D155E6D0E60122E318CC
S31508000920596838000A435A60E368A268D3609A6037
S3150800093000F0AAF820000830D3E65B22944601327C
S31508000940904698449C44434659001BE68A09100081
S315080009503932383052008BE7B44200D05CE7FDE606
S31508000960009B013B009308235B429C46E1444B46AF
S315080009709B6899457AD14346009A1342F0D1736829
S31508000980834373604000984200D9BEE6002800D130
S31508000990BBE6034270D152460092009A40000432E8
S315080009A000920342F9D04BE601234A4653603800C9
S315080009B000F06AF8002094E6AA22520093420DD865
S315080009C0E90B7723D7E580214901EAE60123801060
S315080009D08340726813437360624661E7284A93420C
S315080009E018D8A90C7C23C6E510330093AAE6542A26
S315080009F026D80A0B10006F326E30520038E71B05F6
S31508000A0000D0B8E6009BB2684344180001230343AC
S31508000A105360F7E67F239846013BFE219C46B1E5E5
S31508000A205B464A461A60B1E6002301209B46CAE6A1
S31508000A3021003800083100F08BF853461968E1E6C2
S31508000A40AA204000824205D8CA0B100078327730B7
S31508000A5052000DE70A48824205D88A0C10007D32FA
S31508000A607C30520004E7FE227E2001E7736889E79E
S31508000A70E9084B1C5B0019E653460093E0E5C046BF
S31508000A80540500007047C0467047C046002370B53D
S31508000A90064C05000800236000F03CF9431C00D012
S31508000AA070BD2368002BFBD02B60F9E710090020E6
S31508000AB0F8B50C000600FFF7E5FF204FBB685D6838
S31508000AC003239D431E4B2C1B9C466444240B1D4B41
S31508000AD0013C24039C4207DD00213000FFF7D6FFC6
S31508000AE0BB685B19984204D03000FFF7CDFF0020A1
S31508000AF0F8BD61423000FFF7C9FF431C0DD0012342
S31508000B002D1BBA681D43104B55601A683000141B1C
S31508000B101C60FFF7B9FF0120EAE700213000FFF764
S31508000B20B5FFBB68C21A0F2ADEDD08490968401AF4
S31508000B300549086001210A435A60D5E7900000205C
S31508000B40EF0F0000FF0F0000E40800209C040020BF
S31508000B50F0B54746050080B40C1E3ED0FFF792FF5D
S31508000B6001232100984608394E684246330003207F
S31508000B709343CC186268824360488768BC425AD05F
S31508000B804746626037420BD10827BC460E68844444
S31508000B90891B9B198E68664566D0CF68F760BE606C
S31508000BA00126A7187F68374236D0554A1E434E603D
S31508000BB0CB50934214D8DB08FF3A9C10FF3AA24068
S31508000BC04468DB002243426018188368C8608B605B
S31508000BD08160D9602800FFF757FF04BC9046F0BD36
S31508000BE05A0A042A4FD89C09260039343836640034
S31508000BF0A4000419083CA268032794424AD0506806
S31508000C00B843834202D292689442F8D1D468CC6041
S31508000C108A60A160D160DDE79B183A4FA268BA42A4
S31508000C2040D0E4681E43D460A260354A4E60CB507B
S31508000C309342D5D8BFE79B184246324206D10A6886
S31508000C40891A8C689B18CA68E260946001242E4A47
S31508000C501C4312684C6081609342BBD32B4B28001F
S31508000C601968FFF725FFB5E74646A01840683042E1
S31508000C703ED1A068D318E268C260906042461A4323
S31508000C804A60CB50A6E7142A14D816005C325B36A5
S31508000C905400ADE70123B610B340426813434360DE
S31508000CA02200B4E71E43D1609160CA608A604E6034
S31508000CB0CB508FE7542A05D81C0B26006F346E36A6
S31508000CC0640095E7AA246400A24205D8DC0B260036
S31508000CD07834773664008BE70D4CA24205D89C0C15
S31508000CE026007D347C36640082E7FE247E267FE774
S31508000CF042461A434A60CB506CE7C0469000002033
S31508000D00FF0100009800002098040020E008002059
S31508000D1054050000044A1368002B03D01818106005
S31508000D2018007047014BF9E70C0900201409002048
S30908000D30430000006E
S31508000D34060C0300086839783988396039703980AF
S31508000D443919C91BC9437940794339403940B940EF
S31508000D54F941F9463942B9310039000049084921AF
S31508000D6400290068237823882360237023802319A5
S31508000D741B1B1B436340634323402340A340E341B7
S31508000D84E3462342A333003B00005B085B23002BA6
S31508000D940068357835883560357035803519AD1B6A
S31508000DA4AD437540754335403540B540F541F54684
S31508000DB43542B535003D00006D086D25002D00004F
S31508000DC400000000000000009000002090000020B1
S31508000DD49800002098000020A0000020A000002011
S31508000DE4A8000020A8000020B0000020B0000020C1
S31508000DF4B8000020B8000020C0000020C000002071
S31508000E04C8000020C8000020D0000020D000002020
S31508000E14D8000020D8000020E0000020E0000020D0
S31508000E24E8000020E8000020F0000020F000002080
S31508000E34F8000020F800002000010020000100202E
S31508000E4408010020080100201001002010010020DC
S31508000E54180100201801002020010020200100208C
S31508000E64280100202801002030010020300100203C
S31508000E7438010020380100204001002040010020EC
S31508000E84480100204801002050010020500100209C
S31508000E94580100205801002060010020600100204C
S31508000EA468010020680100207001002070010020FC
S31508000EB478010020780100208001002080010020AC
S31508000EC4880100208801002090010020900100205C
S31508000ED49801002098010020A0010020A00100200C
S31508000EE4A8010020A8010020B0010020B0010020BC
S31508000EF4B8010020B8010020C0010020C00100206C
S31508000F04C8010020C8010020D0010020D00100201B
S31508000F14D8010020D8010020E0010020E0010020CB
S31508000F24E8010020E8010020F0010020F00100207B
S31508000F34F8010020F8010020000200200002002029
S31508000F4408020020080200201002002010020020D7
S31508000F541802002018020020200200202002002087
S31508000F642802002028020020300200203002002037
S31508000F7438020020380200204002002040020020E7
S31508000F844802002048020020500200205002002097
S31508000F945802002058020020600200206002002047
S31508000FA468020020680200207002002070020020F7
S31508000FB478020020780200208002002080020020A7
S31508000FC48802002088020020900200209002002057
S31508000FD49802002098020020A0020020A002002007
S31508000FE4A8020020A8020020B0020020B0020020B7
S31508000FF4B8020020B8020020C0020020C002002067
S31508001004C8020020C8020020D0020020D002002016
S31508001014D8020020D8020020E0020020E0020020C6
S31508001024E8020020E8020020F0020020F002002076
S31508001034F8020020F8020020000300200003002024
S3150800104408030020080300201003002010030020D2
S315080010541803002018030020200300202003002082
S315080010642803002028030020300300203003002032
S3150800107438030020380300204003002040030020E2
S315080010844803002048030020500300205003002092
S315080010945803002058030020600300206003002042
S315080010A468030020680300207003002070030020F2
S315080010B478030020780300208003002080030020A2
S315080010C48803002088030020900300209003002052
S315080010D49803002098030020A0030020A003002002
S315080010E4A8030020A8030020B0030020B0030020B2
S315080010F4B8030020B8030020C0030020C003002062
S31508001104C8030020C8030020D0030020D003002011
S31508001114D8030020D8030020E0030020E0030020C1
S31508001124E8030020E8030020F0030020F003002071
S31508001134F8030020F803002000040020000400201F
S3150800114408040020080400201004002010040020CD
S31508001154180400201804002020040020200400207D
S31508001164280400202804002030040020300400202D
S3150800117438040020380400204004002040040020DD
S31508001184480400204804002050040020500400208D
S31508001194580400205804002060040020600400203D
S315080011A468040020680400207004002070040020ED
S315080011B4780400207804002080040020800400209D
S315080011C4880400208804002000000200FFFFFFFFB7
S315080011D4000000008C070020F40700205C080020AB
S315080011E400000000000000000000000000000000ED
S315080011F400000000000000000000000000000000DD
S3150800120400000000300D0008000000000000000087
S3150800121400000000000000000000000000000000BC
S3150800122400000000000000000000000000000000AC
S31508001234000000000000000000000000000000009C
S31508001244000000000000000000000000000000008C
S31508001254000000000000000000000000000000007C
S31508001264000000000000000000000000000000006C
S31508001274000000000000000001000000000000005B
S315080012840E33CDAB34126DE6ECDE05000B00000020
S31508001294000000000000000000000000000000003C
S315080012A4000000000000000000000000000000002C
S315080012B4000000000000000000000000000000001C
S315080012C4000000000000000000000000000000000C
S311080015F40000000000000000A004002019
S705080004A14D
